:020000040800F2
:1000000000000220D9660008292E00082F2E0008C3
:10001000352E00083B2E0008412E0008000000008D
:10002000000000000000000000000000472E000853
:10003000552E000800000000632E0008712E0008F5
:100040002967000829670008296700082967000850
:100050002967000829670008296700082967000840
:100060007D2E000829670008296700088D2E0008EA
:100070002967000829670008A12E0008B52E00088E
:10008000C92E0008DD2E00082967000800000000C6
:1000900000000000000000000000000029670008C8
:1000A00029670008296700082967000829670008F0
:1000B00029670008296700082967000829670008E0
:1000C00029670008296700082967000829670008D0
:1000D000F12E000829670008052F00080000000025
:1000E0002967000829670008296700080000000048
:1000F0000000000000000000000000001D2F0008AC
:10010000000000002967000829670008312F000857
:1001100000000000000000000000000000000000DF
:10012000296700082967000829670008296700086F
:100130002967000800000000000000000000000027
:100140000000000000000000000000002967000817
:10015000296700082967000829670008296700083F
:10016000296700082967000800000000000000005F
:10017000000000000000000000000000000000007F
:1001800000000000296700080000000000000000D7
:08019000296700082967000837
:1001A00010B5054C237833B9044B13B10448AFF3B1
:1001B00000800123237010BD100200200000000009
:1001C0001086000808B5034B1BB103490348AFF381
:1001D000008008BD00000000140200201086000806
:1001E000034613F8012B002AFBD1181A0138704777
:1001F00001F0FF01102A2BDB10F0070F08D010F8D8
:10020000013B013A8B422DD010F0070F42B3F6D1DB
:10021000F0B441EA012141EA014122F007047FF0F4
:1002200000070023F0E80256083C85EA010586EA4B
:10023000010685FA47F5A3FA87F586FA47F6A5FA87
:1002400087F68EB9EED1F0BC01F0FF0102F0070293
:1002500032B110F8013B013A83EA010313B1F8D13E
:100260000020704701387047002D06BF354603381F
:10027000073815F0010F07D1013015F4807F02BF58
:10028000013015F4C03F0130F0BC0138704700BFA9
:1002900081F0004102E000BF83F0004330B54FEA37
:1002A00041044FEA430594EA050F08BF90EA020FA4
:1002B0001FBF54EA000C55EA020C7FEA645C7FEA37
:1002C000655C00F0E2804FEA5454D4EB5555B8BF5A
:1002D0006D420CDD2C4480EA020281EA030382EACB
:1002E000000083EA010180EA020281EA0303362D5D
:1002F00088BF30BD11F0004F4FEA01314FF4801C30
:100300004CEA113102D0404261EB410113F0004F41
:100310004FEA03334CEA133302D0524263EB4303F8
:1003200094EA050F00F0A780A4F10104D5F1200E96
:100330000DDB02FA0EFC22FA05F2801841F10001F1
:1003400003FA0EF2801843FA05F359410EE0A5F1C5
:1003500020050EF1200E012A03FA0EFC28BF4CF0F6
:10036000020C43FA05F3C01851EBE37101F00045AC
:1003700007D54FF0000EDCF1000C7EEB00006EEBB9
:100380000101B1F5801F1BD3B1F5001F0CD3490843
:100390005FEA30004FEA3C0C04F101044FEA44529A
:1003A00012F5800F80F09A80BCF1004F08BF5FEA21
:1003B000500C50F1000041EB045141EA050130BD01
:1003C0005FEA4C0C404141EB010111F4801FA4F1A4
:1003D0000104E9D191F0000F04BF01460020B1FAF9
:1003E00081F308BF2033A3F10B03B3F120020CDA31
:1003F0000C3208DD02F1140CC2F10C0201FA0CF00F
:1004000021FA02F10CE002F11402D8BFC2F1200C73
:1004100001FA02F120FA0CFCDCBF41EA0C01904029
:10042000E41AA2BF01EB0451294330BD6FEA040472
:100430001F3C1CDA0C340EDC04F11404C4F120025D
:1004400020FA04F001FA02F340EA030021FA04F36F
:1004500045EA030130BDC4F10C04C4F1200220FAC6
:1004600002F001FA04F340EA0300294630BD21FA04
:1004700004F0294630BD94F0000F83F4801306BFCA
:1004800081F480110134013D4EE77FEA645C18BFBE
:100490007FEA655C29D094EA050F08BF90EA020F55
:1004A00005D054EA000C04BF1946104630BD91EA4D
:1004B000030F1EBF0021002030BD5FEA545C05D150
:1004C0004000494128BF41F0004130BD14F580048F
:1004D0003CBF01F5801130BD01F0004545F0FE4103
:1004E00041F470014FF0000030BD7FEA645C1ABF38
:1004F000194610467FEA655C1CBF0B46024650EA6F
:10050000013406BF52EA033591EA030F41F400219A
:1005100030BD00BF90F0000F04BF0021704730B520
:100520004FF4806404F132044FF000054FF00001F5
:1005300050E700BF90F0000F04BF0021704730B5B6
:100540004FF4806404F1320410F0004548BF40428B
:100550004FF000013EE700BF42004FEAE2014FEAE0
:1005600031014FEA02701FBF12F07F4393F07F4FBB
:1005700081F06051704792F0000F14BF93F07F4FED
:10058000704730B54FF4607401F0004521F0004130
:1005900020E700BF50EA010208BF704730B54FF0B6
:1005A00000050AE050EA010208BF704730B511F0BB
:1005B000004502D5404261EB41014FF4806404F1F3
:1005C00032045FEA915C3FF4DCAE4FF003025FEA75
:1005D000DC0C18BF03325FEADC0C18BF033202EBFD
:1005E000DC02C2F1200300FA03FC20FA02F001FA57
:1005F00003FE40EA0E0021FA02F11444C1E600BFF6
:1006000070B54FF0FF0C4CF4E06C1CEA11541DBFA8
:100610001CEA135594EA0C0F95EA0C0F00F0DEF873
:100620002C4481EA030621EA4C5123EA4C5350EA58
:10063000013518BF52EA033541F4801143F48013A9
:1006400038D0A0FB02CE4FF00005E1FB02E506F03A
:100650000042E0FB03E54FF00006E1FB03569CF08F
:10066000000F18BF4EF0010EA4F1FF04B6F5007F95
:1006700064F5407404D25FEA4E0E6D4146EB060607
:1006800042EAC62141EA55514FEAC52040EA5E5090
:100690004FEACE2EB4F1FD0C88BFBCF5E06F1ED83A
:1006A000BEF1004F08BF5FEA500E50F1000041EB71
:1006B000045170BD06F0004646EA010140EA02001E
:1006C00081EA0301B4EB5C04C2BFD4EB0C0541EA40
:1006D000045170BD41F480114FF0000E013C00F355
:1006E000AB8014F1360FDEBF002001F0004170BD79
:1006F000C4F10004203C35DA0C341BDC04F1140492
:10070000C4F1200500FA05F320FA04F001FA05F21D
:1007100040EA020001F0004221F0004110EBD370EA
:1007200021FA04F642EB06015EEA430E08BF20EA16
:10073000D37070BDC4F10C04C4F1200500FA04F3B9
:1007400020FA05F001FA04F240EA020001F000414B
:1007500010EBD37041F100015EEA430E08BF20EABE
:10076000D37070BDC4F1200500FA05F24EEA020E06
:1007700020FA04F301FA05F243EA020321FA04F035
:1007800001F0004121FA04F220EA020000EBD370EC
:100790005EEA430E08BF20EAD37070BD94F0000FEC
:1007A0000FD101F00046400041EB010111F4801F20
:1007B00008BF013CF7D041EA060195F0000F18BFD1
:1007C000704703F00046520043EB030313F4801F0D
:1007D00008BF013DF7D043EA0603704794EA0C0FC7
:1007E0000CEA135518BF95EA0C0F0CD050EA4106DD
:1007F00018BF52EA4306D1D181EA030101F000415A
:100800004FF0000070BD50EA410606BF1046194681
:1008100052EA430619D094EA0C0F02D150EA01368D
:1008200013D195EA0C0F05D152EA03361CBF1046CE
:1008300019460AD181EA030101F0004141F0FE416D
:1008400041F470014FF0000070BD41F0FE4141F4F1
:10085000780170BD70B54FF0FF0C4CF4E06C1CEAF1
:1008600011541DBF1CEA135594EA0C0F95EA0C0FA6
:1008700000F0A7F8A4EB050481EA030E52EA033561
:100880004FEA013100F088804FEA03334FF0805582
:1008900045EA131343EA12634FEA022245EA1115AF
:1008A00045EA10654FEA00260EF000419D4208BF60
:1008B000964244F1FD0404F5407402D25B084FEA0D
:1008C0003202B61A65EB03055B084FEA32024FF4B9
:1008D00080104FF4002CB6EB020E75EB030E22BF16
:1008E000B61A754640EA0C005B084FEA3202B6EBD6
:1008F000020E75EB030E22BFB61A754640EA5C0085
:100900005B084FEA3202B6EB020E75EB030E22BF14
:10091000B61A754640EA9C005B084FEA3202B6EB15
:10092000020E75EB030E22BFB61A754640EADC00D4
:1009300055EA060E18D04FEA051545EA16754FEA36
:1009400006164FEAC30343EA52734FEAC2025FEA54
:100950001C1CC0D111F4801F0BD141EA00014FF0E3
:1009600000004FF0004CB6E711F4801F04BF0143B4
:100970000020B4F1FD0C88BFBCF5E06F3FF6AFAED0
:10098000B5EB030C04BFB6EB020C5FEA500C50F160
:10099000000041EB045170BD0EF0004E4EEA1131E3
:1009A00014EB5C04C2BFD4EB0C0541EA045170BDEA
:1009B00041F480114FF0000E013C90E645EA060E2E
:1009C0008DE60CEA135594EA0C0F08BF95EA0C0F5C
:1009D0003FF43BAF94EA0C0F0AD150EA01347FF4A4
:1009E00034AF95EA0C0F7FF425AF104619462CE77B
:1009F00095EA0C0F06D152EA03353FF4FDAE1046DE
:100A0000194622E750EA410618BF52EA43067FF42E
:100A1000C5AE50EA41047FF40DAF52EA43057FF4BE
:100A2000EBAE12E74FF0FF3C06E000BF4FF0010CC9
:100A300002E000BF4FF0010C4DF804CD4FEA410C2D
:100A40007FEA6C5C4FEA430C18BF7FEA6C5C1BD0FA
:100A500001B050EA410C0CBF52EA430C91EA030F7B
:100A600002BF90EA020F0020704710F1000F91EAD8
:100A7000030F58BF994208BF90422CBFD8176FEAA6
:100A8000E37040F0010070474FEA410C7FEA6C5C74
:100A900002D150EA013C07D14FEA430C7FEA6C5C7B
:100AA000D6D152EA033CD3D05DF8040B704700BFA7
:100AB0008446104662468C461946634600E000BFF5
:100AC00001B5FFF7B7FF002848BF10F1000F01BDC7
:100AD0004DF808EDFFF7F4FF0CBF012000205DF892
:100AE00008FB00BF4DF808EDFFF7EAFF34BF012017
:100AF00000205DF808FB00BF4DF808EDFFF7E0FFB0
:100B000094BF012000205DF808FB00BF4DF808ED00
:100B1000FFF7CEFF94BF012000205DF808FB00BF67
:100B20004DF808EDFFF7C4FF34BF012000205DF849
:100B300008FB00BF4FEA410C7FEA6C5C02D150EA2F
:100B4000013C0AD14FEA430C7FEA6C5C02D152EAC5
:100B5000033C02D14FF0000070474FF00100704796
:100B60004FEA410212F5001215D211D56FF47873D5
:100B7000B3EB625212D94FEAC12343F0004343EA78
:100B8000505311F0004F23FA02F018BF4042704753
:100B90004FF00000704750EA013005D111F00040DD
:100BA00008BF6FF0004070474FF00000704700BF73
:100BB00053B94AB9002908BF00281CBF4FF0FF31C4
:100BC0004FF0FF3000F07AB9ADF1080C6DE904CEBA
:100BD00000F006F8DDF804E0DDE9022304B0704718
:100BE0002DE9F0478C460D460446089E002B51D156
:100BF0008A4217466DD9B2FA82FEBEF1000F0BD0C1
:100C0000CEF1200C01FA0EF520FA0CFC02FA0EF7D8
:100C10004CEA050C00FA0EF44FEA174A250CBCFB0F
:100C2000FAF81FFA87F90AFB18CC45EA0C4508FBCD
:100C300009F3AB420AD9ED1908F1FF3280F02381A4
:100C4000AB4240F22081A8F102083D44ED1AA4B263
:100C5000B5FBFAF00AFB105544EA054400FB09F91C
:100C6000A14509D9E41900F1FF3380F00A81A145BB
:100C700040F2078102383C44A4EB090440EA0840F2
:100C80000021002E61D024FA0EF40023346073603A
:100C9000BDE8F0878B4207D9002E54D0002186E8AA
:100CA00021000846BDE8F087B3FA83F1002940F03F
:100CB0008E80AB4202D3824200F2FA80841A65EB46
:100CC00003050120AC46002E3FD086E81010BDE899
:100CD000F08712B90127B7FBF2F7B7FA87FEBEF12A
:100CE000000F34D1EB1B3A0C1FFA87FC0121B3FB38
:100CF000F2F8250C02FB183345EA03450CFB08F318
:100D0000AB4207D9ED1908F1FF3002D2AB4200F235
:100D1000D1808046ED1AA3B2B5FBF2F002FB10556C
:100D200043EA05440CFB00FCA44507D9E41900F193
:100D3000FF3302D2A44500F2B8801846A4EB0C049D
:100D400040EA08409DE731463046BDE8F087CEF1E5
:100D5000200405FA0EF307FA0EF720FA04F83A0C0D
:100D600025FA04F448EA0308B4FBF2F14FEA184507
:100D700002FB11441FFA87FC45EA044501FB0CF312
:100D8000AB4200FA0EF409D9ED1901F1FF3080F001
:100D90008A80AB4240F2878002393D44EB1A1FFA49
:100DA00088F5B3FBF2F002FB103345EA034500FB84
:100DB0000CF3AB4207D9ED1900F1FF386FD2AB420B
:100DC0006DD902383D44EB1A40EA01418FE7C1F189
:100DD000200722FA07F88B4005FA01F448EA0303DA
:100DE00020FA07FE4FEA134CFD404EEA040EB5FB15
:100DF000FCF94FEA1E440CFB19551FFA83F844EA2C
:100E0000054509FB08F4AC4202FA01F200FA01FAC6
:100E100008D9ED1809F1FF3043D2AC4241D9A9F10C
:100E200002091D442D1B1FFA8EFEB5FBFCF00CFBC6
:100E300010554EEA054400FB08F8A04507D9E41810
:100E400000F1FF3529D2A04527D902381C4440EAD9
:100E50000940A4EB0804A0FB02894C45C6464D4658
:100E600015D312D056B1BAEB0E0364EB050404FAA5
:100E700007F7CB401F43CC40376074600021BDE8CA
:100E8000F0871846F8E69046E0E6C245EAD2B8EBAD
:100E9000020E69EB03050138E4E72846D7E7404630
:100EA00091E78146BEE7014678E702383C4445E7D2
:100EB000084608E7A8F102083D442BE7704700BF49
:100EC00080B500AF6B2301221146184600F034F9BB
:100ED0000346002B02DA4FF0FF3301E16A232022A0
:100EE0001146184600F028F90346002B02DA6FF08D
:100EF0000103F5E024230D221146184600F01CF9E9
:100F00000346002B02DA6FF00203E9E00A23002215
:100F10001146184600F0D0F96B238022114618467E
:100F200000F00AF90A2002F0B7F80B23012211465B
:100F3000184600F0C1F96B2301221146184600F053
:100F4000FBF80346002B02DA6FF00303C8E000F061
:100F5000CBF80346712B07D000F0C6F80346732B7D
:100F600002D06FF00403BBE06C2300221146184648
:100F700000F0E2F80346002B02DA6FF00503AFE061
:100F80001C2318221146184600F0D6F80346002B01
:100F900002DA6FF00603A3E01B2300221146184675
:100FA00000F0CAF80346002B02DA6FF0070397E05F
:100FB0001D2301221146184600F0BEF80346002BFF
:100FC00002DA6FF008038BE01A230122114618465B
:100FD00000F0B2F80346002B02DA6FF009037FE05D
:100FE00019230021184600F0A7F80346002B02DA67
:100FF0006FF00A0374E06A2320221146184600F0BD
:101000009BF80346002B02DA6FF00B0368E0242301
:101010000D221146184600F08FF80346002B02DA25
:101020006FF00C035CE000F073F80346482B02D02D
:101030006FF00D0354E00A2300221146184600F019
:101040003BF90346002B02DA6FF00E0348E0642000
:1010500002F022F80A230F221146184600F02CF95C
:101060000346002B02DA6FF00F0339E0642002F030
:1010700013F810231B4A0321184600F073F90A23C2
:1010800000221146184600F017F90346002B02DA39
:101090006FF0100324E0642001F0FEFF0A23162203
:1010A0001146184600F008F90346002B02DA6FF0EB
:1010B000110315E0642001F0EFFF6B2301221146BC
:1010C000184600F039F80346002B02DA6FF01203DD
:1010D00006E00323034A0721184600F043F90123E1
:1010E000184680BD5C02002080B500AF7523074A1A
:1010F0000121184600F048F80346002B02DA4FF0B1
:10110000FF3301E0014B1B78184680BD5C020020D4
:1011100080B500AF0023074A0121184600F022F9EC
:101120000346002B02DA4FF0FF3301E0014B1B783E
:10113000184680BD5C02002080B584B000AF034635
:101140000A46FB711346BB710023FB73F979BB1D83
:101150000122184600F084F80A2001F09DFFFB7977
:10116000084A0121184600F00FF8064B1A78BB799F
:101170009A4201D1012301E04FF0FF3318461037A6
:10118000BD4680BD5C02002080B584B000AF034640
:101190003A60FB710B46BB710023FB73BB799AB2BB
:1011A000FB791946386800F029F8FB7B002B01D148
:1011B000012301E04FF0FF3318461037BD4680BDD4
:1011C00080B586B002AF0346FB710023FB7307F1C5
:1011D0000F02F91D4FF4805300930123064803F0DA
:1011E00033FB0346002B01D0FF2300E0FB7B1846B6
:1011F0001037BD4680BD00BFD805002080B582B045
:1012000000AF78600B46FB7013463B808022FB7872
:101210001343FB7000220221104802F0F1FDFB781D
:101220001846FFF7CDFF0DE000231846FFF7C8FF73
:1012300003461A467B681A703B88013B3B807B68FB
:1012400001337B603B88002BEED101220221034851
:1012500002F0D6FD00BF0837BD4680BD0004024045
:1012600080B582B000AF78600B46FB7013463B80C0
:10127000002202210F4802F0C3FDFB781846FFF759
:101280009FFF0AE07B681B781846FFF799FF3B88B1
:10129000013B3B807B6801337B603B88002BF1D1B5
:1012A00001220221034802F0ABFD00BF0837BD4612
:1012B00080BD00BF0004024080B582B000AF03468D
:1012C0000A46FB711346BB7125230C2211461846B2
:1012D000FFF732FF0346002B02DA4FF0FF333BE00B
:1012E0002622FB7919461046FFF726FF0346002BFE
:1012F00002DA6FF001032FE06322BB791946104632
:10130000FFF71AFF0346002B02DA6FF0020323E017
:101310002722802343F00103DBB219461046FFF772
:101320000BFF0346002B02DA6FF0030314E0FB7996
:101330000B4A0121184600F015F80346002B02DA8B
:101340006FF0040308E0064B1B78BA799A4201D18A
:10135000012301E06FF0050318460837BD4680BD44
:101360005C02002080B582B000AF03463A60FB719A
:101370000B46BB7125200C2280231343DBB2194698
:10138000FFF7DAFE0346002B02DA4FF0FF3327E0C7
:101390002622FB7919461046FFF7CEFE0346002BA6
:1013A00002DA6FF001031BE027208022BB79134390
:1013B000DBB21946FFF7C0FE0346002B02DA6FF0DE
:1013C00002030DE0012001F067FE4920BB793A6875
:1013D0001946FFF7D9FE0246034B1A60024B1B6801
:1013E00018460837BD4680BDE802002080B582B0AF
:1013F00000AF0346FB71192313211846FFF79CFE2B
:101400000346002B02DA4FF0FF3358E0FB79092B3B
:1014100024D90A23002211461846FFF74DFF034640
:10142000002B02DA6FF0010349E0642001F034FE82
:101430000A23122211461846FFF73EFF0346002BEF
:1014400002DA6FF002033AE0642001F025FE032384
:101450001D4A07211846FFF785FF23E00A230022D3
:1014600011461846FFF728FF0346002B02DA6FF0FB
:10147000010324E0642001F00FFE0A231622114626
:101480001846FFF719FF0346002B02DA6FF002033C
:1014900015E0642001F000FE03230B4A07211846E3
:1014A000FFF760FF1922FB7919461046FFF744FE4B
:1014B0000346002B02DA6FF0030300E00123184615
:1014C0000837BD4680BD00BF5C02002080B500AF7C
:1014D0003723002211461846FFF72EFE0346002B45
:1014E00002DA4FF0FF330CE0382301221146184690
:1014F000FFF722FE0346002B02DA6FF0010300E043
:101500000123184680BD000080B500AF3B233E4A52
:1015100015211846FFF738FE0346002B02DA4FF07C
:10152000FF336EE0384B1B781B021AB2364B5B78E8
:101530001BB213431AB2354B1A80334B9B781B02F4
:101540001AB2314BDB781BB213431AB2304B1A80FC
:101550002D4B1B791B021AB22B4B5B791BB2134329
:101560001AB22C4B1A80284B9B791B021AB2264BBD
:10157000DB791BB213431AB2274B1A80224B1B7A1A
:101580001B021AB2204B5B7A1BB213431AB2234BD5
:101590001A801D4B9B7A1B021AB21B4BDB7A1BB2C3
:1015A00013431AB21E4B1A80174B1B7B1B021AB235
:1015B000154B5B7B1BB213431AB21A4B1A80124BAA
:1015C000DB7B1B021AB2104B9B7B1BB213431AB27C
:1015D000154B1A800C4B5B7C1B021AB20A4B1B7C0E
:1015E0001BB213431AB2114B1A80074BDB7C1B0250
:1015F0001AB2054B9B7C1BB213431AB20C4B1A80D8
:101600000123184680BD00BF5C0200207402002048
:1016100072020020F0020020EE0200207C02002076
:101620005A020020EC020020F202002058020020A2
:10163000E402002080B582B000AF01F0C1FC00F0F0
:10164000C1F800F039FA00F0EFF900F025F900F0E8
:1016500059F900F08DF900F0BDF94C4B1B684B4A6D
:101660001268D26842F01002DA603B2248494748CB
:1016700004F06AF9FFF724FC7860642001F00CFDA7
:10168000FFF724FF642001F007FD0020FFF7AEFE06
:10169000404B1B78DBB2012BFAD13E4B00221A7073
:1016A0003A4B1B68394A1268D26842F01002DA607D
:1016B0003B223749354804F047F9374B1B78DBB2FA
:1016C000002B16D0344B00221A700022022133481E
:1016D00002F096FB324B1B68DB681B683B603B22C9
:1016E00030492F4803F006FB3B2229492E4803F0DE
:1016F0004BFA2E4B1B78DBB2002B09D02B4B002270
:101700001A70284800F0F2FE03461A46284B1A7059
:10171000284B1B78DBB2002BBAD0264B00221A7064
:10172000234B1B78DBB2012B08D100F08BFE224B40
:101730001B68643B184601F0AFFC0CE01C4B1B78A7
:10174000DBB2022B07D100F097FE1B4B1B68643BFA
:10175000184601F0A1FC1948FEF742FD03469BB272
:101760001A461649094804F083F8642001F094FCF5
:10177000074801F073F80B4801F070F8104801F0C9
:101780006DF80E4801F06AF882E700BF30060020CD
:10179000840400202C0200202D02002000080240BA
:1017A000C004002074060020540300202E020020F4
:1017B000310200202F0200202C000020AC0300206A
:1017C0001007002080B594B000AF07F1200330224D
:1017D0000021184604F0D8FF07F10C0300221A601C
:1017E0005A609A60DA601A610023BB60284A284B6D
:1017F0001B6C43F080531364254B1B6C03F0805328
:10180000BB60BB6800237B60224A224B1B6843F409
:10181000404313601F4B1B6803F440437B607B68AD
:1018200001233B624FF480337B620223BB634FF49E
:101830008003FB6308233B644FF4A8737B64042399
:10184000BB640423FB6407F12003184602F00AFB83
:101850000346002B01D001F019F80F23FB6002238F
:101860003B6100237B614FF48053BB610023FB612C
:1018700007F10C030221184602F06CFD0346002B11
:1018800001D001F003F800BF5037BD4680BD00BF56
:10189000003802400070004080B500AF174B184A76
:1018A0001A60164B4FF482725A60144B00229A60F1
:1018B000124B0022DA60114B00221A610F4B0022FA
:1018C0005A610E4B4FF400729A610C4B1822DA6188
:1018D0000A4B00221A62094B00225A62074B00226F
:1018E0009A62064B0A22DA62044802F025FF034698
:1018F000002B01D000F0CAFF00BF80BDD80500203A
:101900000030014080B500AF174B184A1A60164BE3
:101910004FF482725A60144B00229A60124B0022DC
:10192000DA60114B00221A610F4B00225A610E4BF4
:101930004FF400729A610C4B1022DA610A4B0022BC
:101940001A62094B00225A62074B00229A62064B28
:101950000A22DA62044802F0EFFE0346002B01D0AF
:1019600000F094FF00BF80BD540300200038004009
:1019700080B500AF154B164A1A60144B00225A600E
:10198000124B00229A60114B0022DA600F4B0022AA
:101990001A610E4B00225A610C4B00229A610B4BCC
:1019A00000221A62094B00225A62084B00229A62F6
:1019B000064B0A22DA62054802F0BEFE0346002BFF
:1019C00001D000F063FF00BF80BD00BFC004002055
:1019D000003C004080B500AF114B124A1A60104B1A
:1019E0004FF4E1325A600E4B00229A600C4B0022F9
:1019F000DA600B4B00221A61094B0C225A61084B2A
:101A000000229A61064B0022DA61054803F0E2FEEB
:101A10000346002B01D000F039FF00BF80BD00BF9E
:101A2000300600200044004080B582B000AF0023A3
:101A30007B60204A1F4B1B6B43F4001313631D4B49
:101A40001B6B03F400137B607B68002200210B20DA
:101A500001F01DFC0B2001F036FC002200210E20BD
:101A600001F015FC0E2001F02EFC002200210F20B9
:101A700001F00DFC0F2001F026FC002200211020B7
:101A800001F005FC102001F01EFC002200211120B5
:101A900001F0FDFB112001F016FC002200212F2097
:101AA00001F0F5FB2F2001F00EFC00BF0837BD460A
:101AB00080BD00BF0038024080B58AB000AF07F19A
:101AC000140300221A605A609A60DA601A610023D7
:101AD0003B613A4A394B1B6B43F004031363374BAA
:101AE0001B6B03F004033B613B690023FB60334A3B
:101AF000324B1B6B43F080031363304B1B6B03F0C3
:101B00008003FB60FB680023BB602C4A2B4B1B6BE4
:101B100043F001031363294B1B6B03F00103BB600C
:101B2000BB6800237B60254A244B1B6B43F00203F8
:101B30001363224B1B6B03F002037B607B68002264
:101B400002211F4802F05CF9002202211D4802F028
:101B500057F902237B610123BB610023FB61012351
:101B60003B6207F114031946154801F0C7FF022331
:101B70007B610123BB610023FB6101233B6207F111
:101B8000140319460F4801F0B9FF04237B610E4B83
:101B9000BB610023FB6107F114031946094801F0FA
:101BA000ADFF00220021082001F071FB082001F0A8
:101BB0008AFB00BF2837BD4680BD00BF0038024009
:101BC00000080240000402400000111080B400AF81
:101BD000114BB3F900301B02104AB2F90020134434
:101BE0000F4A13600F4BB3F900301B020E4AB2F9D3
:101BF000002013440D4A13600D4BB3F900301B0253
:101C00000C4AB2F9002013440B4A136000BFBD46D2
:101C10005DF8047B704700BF740200207C02002046
:101C200034020020720200205A02002038020020F4
:101C3000F0020020EC0200203C0200200000000026
:101C40002DE9B04300AF9A4B1B685B4207EE903A18
:101C5000F8EEE77A17EE900AFEF77EFC04460D4692
:101C6000944B1B6807EE903AF8EEE77A17EE900A6D
:101C7000FEF772FC02460B469FED891B43EC102BCE
:101C800005F00EFC59EC108B8B4B1B6807EE903A5D
:101C9000F8EEE77A17EE900AFEF75EFC02460B4676
:101CA0009FED7F1B43EC102B05F0FAFB53EC102B40
:101CB00040464946FEF7F2FA02460B4643EC172B24
:101CC000B0EE470AF0EE670A05F062FD53EC102B08
:101CD00020462946FEF7BEFD03460C4644EC173B62
:101CE000B0EE470AF0EE670A05F02AFA51EC100B45
:101CF0006DA3D3E90023FEF783FC03460C46184688
:101D00002146FEF72DFF02466C4B1A60694B1B689B
:101D10005B4207EE903AF8EEE77A17EE900AFEF78C
:101D20001BFC04460D46624B1B6807EE903AF8EE2A
:101D3000E77A17EE900AFEF70FFC02460B469FED7E
:101D4000581B43EC102B05F0ABFB59EC108B5A4B96
:101D50001B6807EE903AF8EEE77A17EE900AFEF766
:101D6000FBFB02460B469FED4E1B43EC102B05F090
:101D700097FB53EC102B40464946FEF78FFA02467C
:101D80000B4643EC172BB0EE470AF0EE670A05F05E
:101D9000FFFC53EC102B20462946FEF75BFD034663
:101DA0000C4644EC173BB0EE470AF0EE670A05F02C
:101DB000C7F951EC100B3CA3D3E90023FEF720FC3C
:101DC00003460C4618462146FEF7CAFE02463C4B27
:101DD0001A60394B1B685B4207EE903AF8EEE77ADF
:101DE00017EE900AFEF7B8FB04460D46304B1B6811
:101DF00007EE903AF8EEE77A17EE900AFEF7ACFBA2
:101E000002460B469FED261B43EC102B05F048FBCA
:101E100059EC108B274B1B6807EE903AF8EEE77AE7
:101E200017EE900AFEF798FB02460B469FED1C1B2F
:101E300043EC102B05F034FB53EC102B4046494685
:101E4000FEF72CFA02460B4643EC172BB0EE470A7E
:101E5000F0EE670A05F09CFC53EC102B2046294657
:101E6000FEF7F8FC03460C4644EC173BB0EE470A7D
:101E7000F0EE670A05F064F951EC100B0AA3D3E900
:101E80000023FEF7BDFB03460C4618462146FEF72D
:101E900067FE02460B4B1A6000BFBDE8B08300BF6F
:101EA0000000000000000040F6285C8FC2A54C40F6
:101EB00034020020380200203C02002040020020B2
:101EC000440200204802002080B483B000AF0346E3
:101ED000FB80FB88042B02D1044B01221A7000BF47
:101EE0000C37BD465DF8047B704700BF2C02002014
:101EF000B0B500AF114A124B15461C460FCC2860F6
:101F00006960AA60EB602388A2782B821346AB74C9
:101F10004FF4FA7001F0C0F800220221094801F0E4
:101F20006FFF3B220549084802F02EFE3B2207497D
:101F3000074802F0DFFE00BFB0BD00BF480400202C
:101F40002886000800080240C0040020AC030020DE
:101F50005403002080B596B002AFF860B9607A6093
:101F6000202387F84F30202387F84E30202387F82E
:101F70004D309D4B1B7887F84F309B4B5B7887F833
:101F80004E30994B9B7887F84D3097F84F30582B4F
:101F900046D197F84E300A2B42D197F84D300A2B94
:101FA0003ED1924B1B78DBB2012B19D1FA689049D4
:101FB000904804F0F1FB002202218F4801F020FF3D
:101FC0003B228C498D4802F0DFFD8D4B1B68DB689E
:101FD0001B68BB643B228B49894802F08BFE0AE2F6
:101FE000824B1B78DBB2022B40F00582FA688649EF
:101FF000804804F0D1FB002202217F4801F000FF5D
:102000003B227C497D4802F0BFFD7D4B1B68DB68AD
:102010001B687B643B227B49794802F06BFEEAE156
:1020200097F84F300A2B46D197F84E30592B42D1B2
:1020300097F84D300A2B3ED16C4B1B78DBB2012B4D
:1020400019D1BA6871496B4804F0A6FB002202213D
:10205000694801F0D5FE3B226649684802F094FDCC
:10206000674B1B68DB681B683B643B22654964481F
:1020700002F040FEC1E15D4B1B78DBB2022B40F069
:10208000BC81BA6862495B4804F086FB00220221E9
:10209000594801F0B5FE3B225649584802F074FDFC
:1020A000574B1B68DB681B68FB633B225549544850
:1020B00002F020FEA1E197F84F300A2B46D197F8A5
:1020C0004E300A2B42D197F84D305A2B3ED1474B18
:1020D0001B78DBB2012B19D17A684E49454804F0D0
:1020E0005BFB00220221444801F08AFE3B22414969
:1020F000424802F049FD424B1B68DB681B68BB632A
:102100003B2240493E4802F0F5FD78E1374B1B7811
:10211000DBB2022B40F073817A683F49354804F006
:102120003BFB00220221344801F06AFE3B22314988
:10213000324802F029FD324B1B68DB681B687B6369
:102140003B2230492E4802F0D5FD58E197F84F3038
:10215000582B67D197F84E30592B63D197F84D30F3
:102160000A2B5FD1214B1B78DBB2012B1AD1BB6844
:10217000FA682A491F4804F00FFB002202211E487A
:1021800001F03EFE3B221B491C4802F0FDFC1C4BAB
:102190001B68DB681B683B633B221A49184802F046
:1021A000A9FD2EE1114B1B78DBB2022B40F02981F7
:1021B000BB68FA681A490F4804F0EEFA00220221BF
:1021C0000D4801F01DFE3B220A490C4802F0DCFCE0
:1021D0000B4B1B68DB681B68FB623B220949084804
:1021E00002F088FD0DE100BF200000203002002039
:1021F0003C8600081007002000080240C0040020B0
:1022000054030020AC030020508600085C860008C0
:10221000708600087C860008908600089C8600086E
:10222000BC86000897F84F300A2B48D197F84E30FB
:10223000592B44D197F84D305A2B40D1754B1B7810
:10224000DBB2012B1AD17B68BA687349734804F07A
:10225000A3FA00220221724801F0D2FD3B226F490D
:10226000704802F091FC704B1B68DB681B68BB6216
:102270003B226E496C4802F03DFDC4E0654B1B7883
:10228000DBB2022B40F0BF807B68BA6868496348C4
:1022900004F082FA00220221614801F0B1FD3B22E4
:1022A0005E49604802F070FC5F4B1B68DB681B688E
:1022B0007B623B225D495C4802F01CFDA3E097F87D
:1022C0004F30582B47D197F84E300A2B43D197F80F
:1022D0004D305A2B3FD14F4B1B78DBB2012B1AD11B
:1022E0007B68FA6853494D4804F056FA00220221EF
:1022F0004B4801F085FD3B2248494A4802F044FC26
:10230000494B1B68DB681B683B623B2247494648D8
:1023100002F0F0FC79E03F4B1B78DBB2022B74D16A
:102320007B68FA6844493D4804F036FA00220221ED
:102330003B4801F065FD3B2238493A4802F024FC55
:10234000394B1B68DB681B68FB613B223749364809
:1023500002F0D0FC59E097F84F30582B56D197F83F
:102360004E30592B52D197F84D305A2B4ED1294B24
:102370001B78DBB2012B1CD17B680093BB68FA6829
:102380002E49264804F008FA00220221244801F0D0
:1023900037FD3B222149234802F0F6FB224B1B6804
:1023A000DB681B68BB613B2220491F4802F0A2FC8E
:1023B0002CE0184B1B78DBB2022B27D17B680093F3
:1023C000BB68FA681E49154804F0E6F900220221AC
:1023D000134801F015FD3B221049124802F0D4FBCE
:1023E000114B1B68DB681B687B613B220F490E4861
:1023F00002F080FC0AE000BF08E000BF06E000BF7A
:1024000004E000BF02E000BF00E000BF00BF5037A3
:10241000BD4680BD30020020D48600081007002091
:1024200000080240C004002054030020AC03002038
:10243000F48600080C8700082C87000844870008F1
:102440007487000880B500AFFFF75EF8FFF7BEFBAA
:10245000064B1B681846064B1B681946054B1B6844
:102460001A46FFF777FD00BF80BD00BF3402002091
:10247000380200203C02002080B500AFFFF744F88E
:10248000FFF7A4FBFFF7DCFB064B1B681846064B67
:102490001B681946054B1B681A46FFF75BFD00BF1A
:1024A00080BD00BF400200204402002048020020FE
:1024B00080B483B000AF0346FB80FB88B3F5FA7F9E
:1024C00008D9FB8842F20F72934203D8FB88064A70
:1024D000136003E0044B4FF4FA721A6000BF0C372C
:1024E000BD465DF8047B70472C00002080B598B095
:1024F00000AF78600023A7F85E3010E0B7F85E30D8
:10250000B7F85E2079680A44127807F160010B443D
:1025100003F8582CB7F85E300133A7F85E30B7F8EF
:102520005E303B2BEAD9002387F85D300023A7F803
:102530005A300023A7F8583023E0844B1B88B7F8A3
:102540005A209A4206D1012387F85D30804B012240
:102550001A701CE0B7F8583007F16002134413F802
:10256000582CB7F858307B49CB5C9A420ED1B7F85B
:102570005A300133A7F85A30B7F858300133A7F86A
:102580005830B7F858303B2BD7D900E000BF0023B4
:10259000A7F856300023A7F8543023E06E4B1B8871
:1025A000B7F856209A4206D1022387F85D30684B6F
:1025B00002221A701CE0B7F8543007F1600213448D
:1025C00013F8582CB7F854306449CB5C9A420ED1BA
:1025D000B7F856300133A7F85630B7F85430013306
:1025E000A7F85430B7F854303B2BD7D900E000BFE0
:1025F0000023A7F852300023A7F8503020E0584BB2
:102600001B88B7F852209A4203D1032387F85D3024
:102610001CE0B7F8503007F16002134413F8582C4F
:10262000B7F850304F49CB5C9A420ED1B7F85230D0
:102630000133A7F85230B7F850300133A7F85030C3
:10264000B7F850303B2BDAD900E000BF0023A7F8E1
:102650004E300023A7F84C3097F85D30022B0ED097
:10266000032B17D0012B20D1B7F85A300133A7F82C
:102670004E30B7F85A300533A7F84C3015E0B7F8AC
:1026800056300133A7F84E30B7F856300533A7F867
:102690004C300AE0B7F852300133A7F84E30B7F8A3
:1026A00052300533A7F84C3000BFB7F84E30A7F8CA
:1026B0004A300023A7F8483014E0B7F84830B7F89C
:1026C0004A2007F160010A4412F8581C264AD154E6
:1026D000B7F84A300133A7F84A30B7F84830013329
:1026E000A7F84830B7F84A20B7F84C309A42E4D3FC
:1026F00097F85D30012B02D1FFF7A4FE1FE097F899
:102700005D30022B02D1FFF7B7FE18E097F85D307D
:10271000032B0ED10023A7F84630134804F005F828
:102720000346A7F84630B7F846301846FFF7C0FE14
:1027300005E097F85D30002B01D1FFF7D9FB97F842
:102740005D3018466037BD4680BD00BF24000020C4
:102750003002002000000020260000200C00002095
:1027600028000020180000202000002080B584B040
:1027700000AF78607B681B680D4A934214D17B6878
:102780001B681B6803F01003102B0DD10023FB60A6
:102790007B681B681B68FB607B681B685B68FB6071
:1027A000FB68786800F044F800BF1037BD4680BD74
:1027B0000044004080B582B000AF78607B681B6841
:1027C000054A934204D101220221044801F018FB7A
:1027D00000BF0837BD4680BD0038004000080240F9
:1027E00080B582B000AF78607B681B680B4A93426B
:1027F00002D10B4B01221A707B681B68094A934275
:1028000007D1094B01221A7001220221074801F069
:10281000F7FA00BF0837BD4680BD00BF003C00404E
:102820002E020020003800402F0200200008024045
:1028300080B582B000AF7860786803F0B5F8054BDA
:1028400001221A70044B01221A7000BF0837BD46DE
:1028500080BD00BF320200202D02002080B485B070
:1028600000AF78600023FB8107E0FB897A6813449E
:1028700000221A70FB890133FB81FB893B2BF4D9C1
:1028800000BF1437BD465DF8047B704780B400AFCD
:1028900072B6FEE780B582B000AF00237B60104ABD
:1028A0000F4B5B6C43F4804353640D4B5B6C03F440
:1028B00080437B607B6800233B60094A084B1B6CAC
:1028C00043F080531364064B1B6C03F080533B6052
:1028D0003B68072000F0D0FC00BF0837BD4680BD34
:1028E0000038024080B590B000AF786007F12C034B
:1028F00000221A605A609A60DA601A617B681B686D
:10290000714A93422CD10023BB62704A6F4B5B6CBF
:1029100043F4805353646D4B5B6C03F48053BB6290
:10292000BB6A00237B62694A684B1B6B43F001035F
:102930001363664B1B6B03F001037B627B6AE0232E
:10294000FB6202233B6300237B630323BB630523FA
:10295000FB6307F12C0319465D4801F0CFF899E1BC
:102960007B681B685B4A934240F0C28000233B6255
:10297000564A564B1B6C43F480431364534B1B6CF9
:1029800003F480433B623B6A0023FB614F4A4F4B99
:102990001B6B43F0040313634C4B1B6B03F00403EA
:1029A000FB61FB690023BB61484A484B1B6B43F04A
:1029B00002031363454B1B6B03F00203BB61BB694E
:1029C0000C23FB6202233B6300237B630323BB6373
:1029D0000523FB6307F12C0319463F4801F08EF8ED
:1029E0004FF48063FB6202233B6300237B6303237A
:1029F000BB630523FB6307F12C031946374801F03D
:102A00007DF8374B374A1A60354B00225A60344BF9
:102A100000229A60324B0022DA60314B4FF4806220
:102A20001A612F4B00225A612D4B00229A612C4BC8
:102A30000022DA612A4B00221A62294B00225A62D4
:102A4000274800F05BFC0346002B01D0FFF71EFF78
:102A50007B68234ADA64224A7B689363224B234AC9
:102A60001A60214B00225A601F4B40229A601E4B75
:102A70000022DA601C4B4FF480621A611A4B00226C
:102A80005A61194B00229A61174B0022DA61164BEA
:102A900000221A62144B00225A62134800F02EFCE6
:102AA0000346002B01D0FFF7F1FE7B680E4A9A64C3
:102AB0000D4A7B68936300220021242000F0E7FB8D
:102AC000242000F000FCE5E0003001400038024026
:102AD00000000240003800400008024000040240AC
:102AE000E803002058600240B006002070600240F9
:102AF0007B681B68694A934240F0CC8000237B616D
:102B0000674A674B1B6C43F400431364644B1B6CB4
:102B100003F400437B617B6900233B61604A604BA7
:102B20001B6B43F0010313635D4B1B6B03F001034D
:102B30003B613B690023FB60594A594B1B6B43F0D7
:102B400002031363564B1B6B03F00203FB60FB682D
:102B50000023BB60524A524B1B6B43F004031363C8
:102B60004F4B1B6B03F00403BB60BB681023FB627D
:102B700002233B6300237B630323BB630623FB63C6
:102B800007F12C031946474800F0B8FF4FF4805373
:102B9000FB6202233B6300237B630323BB630723A6
:102BA000FB6307F12C0319463F4800F0A7FF4FF4E1
:102BB000C053FB6202233B6300237B630323BB639D
:102BC0000623FB6307F12C031946384800F096FFF3
:102BD000374B384A1A60364B00225A60344B002279
:102BE0009A60334B0022DA60314B4FF480621A61F5
:102BF0002F4B00225A612E4B00229A612C4B00224F
:102C0000DA612B4B00221A62294B00225A622848B3
:102C100000F074FB0346002B01D0FFF737FE7B6802
:102C2000234ADA64224A7B689363234B234A1A605F
:102C3000214B00225A60204B40229A601E4B0022FA
:102C4000DA601D4B4FF480621A611B4B00225A61FF
:102C5000194B00229A61184B0022DA61164B0022B0
:102C60001A62154B00225A62134800F047FB0346D4
:102C7000002B01D0FFF70AFE7B680F4A9A640E4AC8
:102C80007B68936300220021332000F000FB332097
:102C900000F019FB00BF4037BD4680BD003C00403E
:102CA00000380240000002400004024000080240D8
:102CB0004C0700201060024018050020B860024058
:102CC00080B58AB000AF786007F1140300221A6063
:102CD0005A609A60DA601A617B681B684B4A9342BB
:102CE00040F0908000233B61494A494B1B6C43F400
:102CF00000331364464B1B6C03F400333B613B69A8
:102D00000023FB60424A424B1B6B43F001031363F9
:102D10003F4B1B6B03F00103FB60FB680C237B61E3
:102D20000223BB610023FB6103233B6207237B6219
:102D300007F114031946374800F0E0FE364B374AD6
:102D40001A60354B4FF000625A60334B00229A6094
:102D5000314B0022DA60304B4FF480621A612E4B07
:102D600000225A612C4B00229A612B4B0022DA611F
:102D7000294B00221A62284B00225A62264800F092
:102D8000BDFA0346002B01D0FFF780FD7B68224A85
:102D90009A63214A7B689363214B224A1A60204B35
:102DA0004FF000625A601E4B40229A601C4B00227A
:102DB000DA601B4B4FF480621A61194B00225A6192
:102DC000174B00229A61164B0022DA61144B002245
:102DD0001A62134B00225A62114800F08FFA034620
:102DE000002B01D0FFF752FD7B680D4A5A630C4A55
:102DF0007B68936300220021262000F048FA2620F9
:102E000000F061FA00BF2837BD4680BD0044004095
:102E10000038024000000240F402002088600240B6
:102E200078050020A060024080B400AFFEE780B4C7
:102E300000AFFEE780B400AFFEE780B400AFFEE76E
:102E400080B400AFFEE780B400AF00BFBD465DF8C0
:102E5000047B704780B400AF00BFBD465DF8047BC3
:102E6000704780B400AF00BFBD465DF8047B70477B
:102E700080B500AF00F0F0F800BF80BD80B500AFB6
:102E8000042000F0D7FF00BF80BD000080B500AF78
:102E9000024800F0CBFB00BF80BD00BF4C07002004
:102EA00080B500AF024800F0C1FB00BF80BD00BF8D
:102EB000E803002080B500AF024800F0B7FB00BF78
:102EC00080BD00BFB006002080B500AF024800F012
:102ED000ADFB00BF80BD00BFF402002080B500AF95
:102EE000024800F0A3FB00BF80BD00BF78050020B2
:102EF00080B500AF024802F0C7F800BF80BD00BF38
:102F00005403002080B500AF034802F0A9FD024839
:102F1000FFF72CFC00BF80BD3006002080B500AF5D
:102F2000024800F083FB00BF80BD00BF18050020F1
:102F300080B500AF024802F0A7F800BF80BD00BF17
:102F4000C004002080B584B000AF7860114B1B68CE
:102F5000002B02D10F4B104A1A600E4B1B68FB600E
:102F60000C4B1A687B6813446A46934207D903F0F6
:102F7000E1FB02460C2313604FF0FF3306E0054BE4
:102F80001A687B681344034A1360FB6818461037BD
:102F9000BD4680BD4C020020B407002080B400AFC5
:102FA000064A064BD3F8883043F47003C2F88830E1
:102FB00000BFBD465DF8047B704700BF00ED00E038
:102FC00080B500AF0B4A0B4B1B6843F400731360D2
:102FD000084A084B1B6843F480731360032000F019
:102FE0004BF9002000F008F8FFF754FC00231846C6
:102FF00080BD00BF003C024080B582B000AF786069
:10300000124B1A68124B1B7819464FF47A73B3FBB4
:10301000F1F3B2FBF3F3184600F063F90346002B1B
:1030200001D001230EE07B680F2B0AD800227968BB
:103030004FF0FF3000F02BF9064A7B681360002345
:1030400000E0012318460837BD4680BD300000204F
:10305000380000203400002080B400AF064B1B78FD
:103060001A46064B1B681344044A136000BFBD4652
:103070005DF8047B704700BF38000020AC070020DB
:1030800080B400AF034B1B681846BD465DF8047B57
:10309000704700BFAC07002080B584B000AF7860F7
:1030A000FFF7EEFFB8607B68FB60FB68B3F1FF3FA2
:1030B00005D0094B1B781A46FB681344FB6000BF20
:1030C000FFF7DEFF0246BB68D21AFB689A42F7D3CD
:1030D00000BF1037BD4680BD3800002080B485B0E9
:1030E00000AF78607B6803F00703FB600C4BDB6884
:1030F000BB60BA684FF6FF031340BB60FB681A025F
:10310000BB68134343F0BF6343F40033BB60044A1E
:10311000BB68D36000BF1437BD465DF8047B7047C1
:1031200000ED00E080B400AF044BDB681B0A03F045
:1031300007031846BD465DF8047B704700ED00E0CC
:1031400080B483B000AF0346FB7197F90730002BC2
:103150000BDB094997F907305B09FA7902F01F0286
:10316000012000FA02F241F8232000BF0C37BD46CF
:103170005DF8047B704700BF00E100E080B483B0DD
:1031800000AF03463960FB7197F90730002B0ADB6B
:103190000D4997F907303A68D2B21201D2B20B4406
:1031A00083F800230AE00949FB7903F00F03043B8D
:1031B0003A68D2B21201D2B20B441A7600BF0C3771
:1031C000BD465DF8047B704700E100E000ED00E0E3
:1031D00080B489B000AFF860B9607A60FB6803F032
:1031E0000703FB61FB69C3F10703042B28BF04231A
:1031F000BB61FB690433062B02D9FB69033B00E08A
:1032000000237B610122BB6902FA03F35A1EBB68EB
:103210001A407B699A4001217B6901FA03F3591E28
:103220007B680B40134318462437BD465DF8047B8A
:103230007047000080B582B000AF78607B68013BCA
:10324000B3F1807F01D301230FE00A4A7B68013B81
:1032500053600F214FF0FF30FFF790FF054B002226
:103260009A60044B07221A60002318460837BD46AF
:1032700080BD00BF10E000E080B582B000AF786094
:103280007868FFF72BFF00BF0837BD4680BD80B5CB
:1032900086B000AF0346B9607A60FB7300237B61A0
:1032A000FFF740FF78617A68B9687869FFF790FFA7
:1032B000024697F90F3011461846FFF75FFF00BF2F
:1032C0001837BD4680BD80B582B000AF0346FB71A4
:1032D00097F907301846FFF733FF00BF0837BD46A0
:1032E00080BD80B582B000AF78607868FFF7A2FF3C
:1032F000034618460837BD4680BD000080B586B03D
:1033000000AF786000237B61FFF7BAFE38617B680D
:10331000002B01D1012399E07B68002283F834203F
:103320007B68022283F835207B681B687A68126804
:10333000126822F001021A600FE0FFF7A1FE0246B8
:103340003B69D31A052B08D97B6820225A657B6814
:10335000032283F83520032378E07B681B681B6811
:1033600003F00103002BE8D17B681B681B687B61BD
:103370007A69384B13407B617B685A687B689B682D
:103380001A437B68DB681A437B681B691A437B68B6
:103390005B691A437B689B691A437B68DB691A4344
:1033A0007B681B6A13437A6913437B617B685B6AA2
:1033B000042B07D17B68DA6A7B681B6B13437A693D
:1033C00013437B617B681B687A691A607B681B68A2
:1033D0005B697B617B6923F007037B617B685B6AC8
:1033E0007A6913437B617B685B6A042B17D17B6826
:1033F0009B6A7A6913437B617B68DB6A002B0ED082
:10340000786800F001FB0346002B08D07B6840225F
:103410005A657B68012283F83520012316E07B681A
:103420001B687A695A61786800F0B8FA0346FB6055
:103430007B68DB6D3F229A40FB689A607B680022C4
:103440005A657B68012283F8352000231846183717
:10345000BD4680BD3F8010F080B586B000AFF860FB
:10346000B9607A603B600023FB75FB689B6D3B6134
:10347000FB6893F83430012B01D1022340E0FB6854
:10348000012283F83420FB6893F83530DBB2012B3E
:103490002FD1FB68022283F83520FB6800225A6591
:1034A0003B687A68B968F86800F04AFAFB68DB6D37
:1034B0003F229A403B699A60FB681B68FA68126871
:1034C000126842F016021A60FB681B6C002B07D0D2
:1034D000FB681B68FA681268126842F008021A60FA
:1034E000FB681B68FA681268126842F001021A60F1
:1034F00005E0FB68002283F834200223FB75FB7D86
:1035000018461837BD4680BD80B584B000AF7860DE
:103510007B689B6DFB60FFF7B3FDB8607B6893F839
:103520003530DBB2022B08D07B6880225A657B687D
:10353000002283F83420012352E07B681B687A68FC
:103540001268126822F016021A607B681B687A689B
:103550001268526922F080025A617B681B6C002B52
:1035600003D17B689B6C002B07D07B681B687A6853
:103570001268126822F008021A607B681B687A6879
:103580001268126822F001021A6013E0FFF778FD5A
:103590000246BB68D31A052B0CD97B6820225A65DA
:1035A0007B68002283F834207B68032283F835206F
:1035B000032315E07B681B681B6803F00103002BE5
:1035C000E4D17B68DB6D3F229A40FB689A607B68A0
:1035D000002283F834207B68012283F83520002301
:1035E00018461037BD4680BD80B483B000AF786008
:1035F0007B6893F83530DBB2022B04D07B688022E5
:103600005A6501230CE07B68052283F835207B682E
:103610001B687A681268126822F001021A6000239F
:1036200018460C37BD465DF8047B704780B586B000
:1036300000AF78600023BB60924B1B68924AA2FBEC
:1036400003239B0A7B617B689B6D3B613B691B6825
:10365000FB607B68DB6D08229A40FB681340002BFF
:103660001AD07B681B681B6803F00403002B13D07F
:103670007B681B687A681268126822F004021A607C
:103680007B68DB6D08229A403B699A607B685B6DC2
:1036900043F001027B685A657B68DB6D01229A402A
:1036A000FB681340002B12D07B681B685B6903F03A
:1036B0008003002B0BD07B68DB6D01229A403B69B5
:1036C0009A607B685B6D43F002027B685A657B6899
:1036D000DB6D04229A40FB681340002B12D07B68FC
:1036E0001B681B6803F00203002B0BD07B68DB6DAB
:1036F00004229A403B699A607B685B6D43F0040248
:103700007B685A657B68DB6D10229A40FB6813402A
:10371000002B43D07B681B681B6803F00803002B59
:103720003CD07B68DB6D10229A403B699A607B68D5
:103730001B681B6803F48023002B18D07B681B6870
:103740001B6803F40023002B08D17B681B6C002B43
:1037500024D07B681B6C786898471FE07B689B6C63
:10376000002B1BD07B689B6C7868984716E07B68C1
:103770001B681B6803F48073002B07D17B681B68F0
:103780007A681268126822F008021A607B681B6C63
:10379000002B03D07B681B6C786898477B68DB6DD7
:1037A00020229A40FB681340002B00F08E807B683B
:1037B0001B681B6803F01003002B00F086807B68F9
:1037C000DB6D20229A403B699A607B6893F8353024
:1037D000DBB2052B36D17B681B687A6812681268E9
:1037E00022F016021A607B681B687A6812685269B8
:1037F00022F080025A617B681B6C002B03D17B682E
:103800009B6C002B07D07B681B687A681268126873
:1038100022F008021A607B68DB6D3F229A403B6908
:103820009A607B68002283F834207B68012283F849
:1038300035207B681B6D002B7DD07B681B6D786805
:10384000984778E07B681B681B6803F48023002B93
:103850001CD07B681B681B6803F40023002B08D175
:103860007B685B6C002B30D07B685B6C786898471A
:103870002BE07B68DB6B002B27D07B68DB6B7868E9
:10388000984722E030000020B5814E1B7B681B6802
:103890001B6803F48073002B0FD17B681B687A6868
:1038A0001268126822F010021A607B68002283F806
:1038B00034207B68012283F835207B68DB6B002B8A
:1038C00003D07B68DB6B786898477B685B6D002B67
:1038D00032D07B685B6D03F00103002B22D07B6844
:1038E000052283F835207B681B687A6812681268A5
:1038F00022F001021A60BB680133BB607A6993420F
:1039000007D87B681B681B6803F00103002BF2D10A
:1039100000E000BF7B68002283F834207B6801222E
:1039200083F835207B68DB6C002B05D07B68DB6C73
:103930007868984700E000BF1837BD4680BD00BFDB
:1039400080B485B000AFF860B9607A603B60FB6816
:103950001B68FA681268126822F480221A60FB68F9
:103960001B683A685A60FB689B68402B08D1FB686B
:103970001B687A689A60FB681B68BA68DA6007E0BF
:10398000FB681B68BA689A60FB681B687A68DA6033
:1039900000BF1437BD465DF8047B704780B485B026
:1039A00000AF78607B681B68DBB2103B144AA2FB57
:1039B00003231B09FB60134AFB6813441B781A4658
:1039C0007B68DA65FB68032B09D97B681B6823F4E5
:1039D0007F7323F003031A1D7B689A6507E07B68F9
:1039E0001B6823F47F7323F003037A6893657B6875
:1039F0009B6D18461437BD465DF8047B704700BFC9
:103A0000ABAAAAAAAC87000880B485B000AF7860E2
:103A10000023FB737B689B6ABB607B689B69002B00
:103A20001FD1BB68032B55D801A252F823F000BF69
:103A3000413A0008533A0008413A0008D53A0008D4
:103A40007B68DB6A03F08073002B45D00123FB7396
:103A500042E07B68DB6AB3F1C07F3FD10123FB7397
:103A60003CE07B689B69B3F5005F21D1BB68032B09
:103A700036D801A252F823F0893A00088F3A00089C
:103A8000893A0008A13A00080123FB732FE07B6804
:103A9000DB6A03F08073002B24D00123FB7321E049
:103AA0007B68DB6AB3F1C07F1ED10123FB731BE08F
:103AB000BB68022B02D9032B03D018E00123FB7350
:103AC00015E07B68DB6A03F08073002B0ED00123C6
:103AD000FB730BE000BF0AE000BF08E000BF06E098
:103AE00000BF04E000BF02E000BF00E000BFFB7BBE
:103AF00018461437BD465DF8047B704780B489B022
:103B000000AF7860396000237B6100233B610023B4
:103B1000BB610023FB6159E10122FB6902FA03F357
:103B20007B613B681A687B6913403B613A697B693A
:103B30009A4240F048813B685B6803F00303012B25
:103B400005D03B685B6803F00303022B30D17B6830
:103B50009B68BB61FB695B00032202FA03F3DB4352
:103B6000BA691340BB613B68DA68FB695B0002FA23
:103B700003F3BA691343BB617B68BA699A607B68D7
:103B80005B68BB610122FB6902FA03F3DB43BA699C
:103B90001340BB613B685B681B0903F00102FB69D2
:103BA00002FA03F3BA691343BB617B68BA695A60CE
:103BB0003B685B6803F00303032B17D07B68DB686B
:103BC000BB61FB695B00032202FA03F3DB43BA69C2
:103BD0001340BB613B689A68FB695B0002FA03F320
:103BE000BA691343BB617B68BA69DA603B685B689A
:103BF00003F00303022B23D1FB69DA087B68083248
:103C000053F82230BB61FB6903F007039B000F22CE
:103C100002FA03F3DB43BA691340BB613B681A69DC
:103C2000FB6903F007039B0002FA03F3BA6913432D
:103C3000BB61FB69DA087B680832B96943F8221076
:103C40007B681B68BB61FB695B00032202FA03F31C
:103C5000DB43BA691340BB613B685B6803F0030256
:103C6000FB695B0002FA03F3BA691343BB617B682B
:103C7000BA691A603B685B6803F08053002B00F060
:103C8000A2800023FB60564A554B5B6C43F4804393
:103C90005364534B5B6C03F48043FB60FB68514AF5
:103CA000FB699B08023352F82330BB61FB6903F0C8
:103CB00003039B000F2202FA03F3DB43BA691340AC
:103CC000BB617B68484A934219D07B68474A93425C
:103CD00013D07B68464A93420DD07B68454A934295
:103CE00007D07B68444A934201D1042308E00723AC
:103CF00006E0032304E0022302E0012300E00023A6
:103D0000FA6902F0030292009340BA691343BB615F
:103D10003449FB699B080233BA6941F82320374BC9
:103D20001B68BB613B69DB43BA691340BB613B68FD
:103D30005B6803F48033002B03D0BA693B691343FB
:103D4000BB612E4ABB6913602C4B5B68BB613B694E
:103D5000DB43BA691340BB613B685B6803F4003323
:103D6000002B03D0BA693B691343BB61234ABB698B
:103D70005360224B9B68BB613B69DB43BA691340CC
:103D8000BB613B685B6803F48013002B03D0BA6906
:103D90003B691343BB61194ABB699360174BDB68EE
:103DA000BB613B69DB43BA691340BB613B685B683D
:103DB00003F40013002B03D0BA693B691343BB61C2
:103DC0000E4ABB69D360FB690133FB61FB690F2BB2
:103DD0007FF6A2AE00BF2437BD465DF8047B704776
:103DE0000038024000380140000002400004024058
:103DF00000080240000C024000100240003C01405C
:103E000080B483B000AF78600B467B8013467B7034
:103E10007B78002B03D07A887B689A6103E07B88EB
:103E20001A047B689A6100BF0C37BD465DF8047BBD
:103E30007047000080B582B000AF0346FB80084B9E
:103E40005A69FB881340002B06D0054AFB88536152
:103E5000FB881846FEF738F800BF0837BD4680BD1E
:103E6000003C014080B586B000AF78607B68002BD5
:103E700001D1012364E27B681B6803F00103002B7E
:103E800075D0A34B9B6803F00C03042B0CD0A04B04
:103E90009B6803F00C03082B12D19D4B5B6803F465
:103EA0008003B3F5800F0BD1994B1B6803F40033EB
:103EB000002B5BD07B685B68002B57D101233FE26E
:103EC0007B685B68B3F5803F06D1914A904B1B68D5
:103ED00043F4803313601DE07B685B68B3F5A02F6B
:103EE0000CD18B4A8A4B1B6843F480231360884AA9
:103EF000874B1B6843F4803313600BE0844A844B88
:103F00001B6823F480331360814A814B1B6823F4C0
:103F1000802313607B685B68002B13D0FFF7B0F839
:103F2000386108E0FFF7ACF802463B69D31A642B0E
:103F300001D9032304E2764B1B6803F40033002B02
:103F4000F0D014E0FFF79CF8386108E0FFF798F82C
:103F500002463B69D31A642B01D90323F0E16C4B71
:103F60001B6803F40033002BF0D100E000BF7B6836
:103F70001B6803F00203002B63D0654B9B6803F0C2
:103F80000C03002B0BD0624B9B6803F00C03082B37
:103F90001CD15F4B5B6803F48003002B16D15C4B94
:103FA0001B6803F00203002B05D07B68DB68012B44
:103FB00001D00123C4E15649554B1B6823F0F80298
:103FC0007B681B69DB0013430B603AE07B68DB68AE
:103FD000002B20D04F4B01221A60FFF751F83861B7
:103FE00008E0FFF74DF802463B69D31A022B01D9CE
:103FF0000323A5E1464B1B6803F00203002BF0D01E
:104000004349434B1B6823F0F8027B681B69DB00C4
:1040100013430B6015E03F4B00221A60FFF730F8A6
:10402000386108E0FFF72CF802463B69D31A022BEF
:1040300001D9032384E1364B1B6803F00203002BF4
:10404000F0D17B681B6803F00803002B30D07B683D
:104050005B69002B16D0304B01221A60FFF710F875
:10406000386108E0FFF70CF802463B69D31A022BCF
:1040700001D9032364E1264B5B6F03F00203002B9D
:10408000F0D015E0244B00221A60FEF7F9FF3861EA
:1040900008E0FEF7F5FF02463B69D31A022B01D96F
:1040A00003234DE11A4B5B6F03F00203002BF0D1A9
:1040B0007B681B6803F00403002B00F0A080002342
:1040C000FB75134B1B6C03F08053002B0FD10023A7
:1040D000BB600F4A0E4B1B6C43F0805313640C4BB8
:1040E0001B6C03F08053BB60BB680123FB750B4B5B
:1040F0001B6803F48073002B21D1084A074B1B680F
:1041000043F480731360FEF7BBFF386111E000BF1A
:104110000038024000004742800E474200700040D5
:10412000FEF7AEFF02463B69D31A022B01D90323E7
:1041300006E1854B1B6803F48073002BF0D07B688D
:104140009B68012B06D1814A804B1B6F43F0010312
:1041500013671CE07B689B68052B0CD17B4A7B4B6B
:104160001B6F43F004031367784A784B1B6F43F0CF
:10417000010313670BE0754A744B1B6F23F00103B7
:104180001367724A714B1B6F23F0040313677B683C
:104190009B68002B15D0FEF773FF38610AE0FEF72D
:1041A0006FFF02463B69D31A41F28832934201D92C
:1041B0000323C5E0654B1B6F03F00203002BEED019
:1041C00014E0FEF75DFF38610AE0FEF759FF024692
:1041D0003B69D31A41F28832934201D90323AFE0FD
:1041E0005A4B1B6F03F00203002BEED1FB7D012B1A
:1041F00005D1564A554B1B6C23F0805313647B68E2
:104200009B69002B00F09B80504B9B6803F00C03D4
:10421000082B5CD07B689B69022B41D14C4B002260
:104220001A60FEF72DFF386108E0FEF729FF02460D
:104230003B69D31A022B01D9032381E0434B1B684E
:1042400003F00073002BF0D140497B68DA697B688A
:104250001B6A1A437B685B6A9B011A437B689B6AF3
:104260005B08013B1B041A437B68DB6A1B06134394
:104270004B60374B01221A60FEF702FF386108E0FD
:10428000FEF7FEFE02463B69D31A022B01D9032337
:1042900056E02E4B1B6803F00073002BF0D04EE06D
:1042A0002B4B00221A60FEF7EBFE386108E0FEF7A8
:1042B000E7FE02463B69D31A022B01D903233FE0F4
:1042C000224B1B6803F00073002BF0D137E07B68B2
:1042D0009B69012B01D1012332E01C4B5B68FB6021
:1042E0007B689B69012B28D0FB6803F480027B6804
:1042F000DB699A4221D1FB6803F03F027B681B6AAD
:104300009A421AD1FA6847F6C07313407A68526A23
:104310009201934211D1FB6803F440327B689B6A9F
:104320005B08013B1B049A4207D1FB6803F07062F3
:104330007B68DB6A1B069A4201D0012300E0002360
:1043400018461837BD4680BD007000400038024056
:104350006000474280B584B000AF786039607B6808
:10436000002B01D10123CCE0684B1B6803F007024E
:104370003B689A420CD2654B3A68D2B21A70634BD2
:104380001B6803F007023B689A4201D00123B8E0A2
:104390007B681B6803F00203002B20D07B681B683E
:1043A00003F00403002B05D0594A594B9B6843F492
:1043B000E05393607B681B6803F00803002B05D073
:1043C000534A534B9B6843F4604393605049504BAE
:1043D0009B6823F0F0027B689B6813438B607B68CB
:1043E0001B6803F00103002B44D07B685B68012B42
:1043F00007D1474B1B6803F40033002B19D101236D
:104400007FE07B685B68022B03D07B685B68032BD3
:1044100007D13F4B1B6803F00073002B09D1012328
:104420006FE03B4B1B6803F00203002B01D101231B
:1044300067E03749364B9B6823F003027B685B6873
:1044400013438B60FEF71CFEF8600AE0FEF718FECF
:104450000246FB68D31A41F28832934201D9032302
:104460004FE02B4B9B6803F00C027B685B689B0062
:104470009A42EBD1254B1B6803F007023B689A4236
:104480000CD9224B3A68D2B21A70204B1B6803F049
:1044900007023B689A4201D0012332E07B681B6827
:1044A00003F00403002B08D01949194B9B6823F42F
:1044B000E0527B68DB6813438B607B681B6803F00A
:1044C0000803002B09D01249114B9B6823F460426A
:1044D0007B681B69DB0013438B6000F021F8014609
:1044E0000B4B9B681B0903F00F030A4AD35C21FAAC
:1044F00003F3094A1360094B1B681846FEF77CFD5D
:10450000002318461037BD4680BD00BF003C024066
:10451000003802409487000830000020340000205A
:104520002DE9F04F8FB000AF0023FB6200237B63C7
:104530000023BB6200233B63624B9B6803F00C03C8
:10454000042B07D0082B08D0002B40F0B2805E4B24
:104550003B63B1E05D4B3B63AEE05A4B5B6803F0FD
:104560003F03FB62574B5B6803F48003002B4ED084
:10457000544B5B689B094FF0000440F2FF114FF071
:10458000000201EA030102EA04020B46144660013C
:104590007862786A40EAD36078625B013B62D7E96F
:1045A00008345B1A64EB02044FEA841949EA936900
:1045B0004FEA8318B8EB030869EB04094FEAC90313
:1045C000FB61FB6943EA5873FB614FEAC803BB61B7
:1045D000D7E9068918EB010849EB02094FEA49239C
:1045E0007B617B6943EAD8537B614FEA48233B6197
:1045F000D7E9048940464946FB6A4FF000041A4651
:104600002346FCF7D5FA03460C467B6343E02D4B6B
:104610005B689B094FF0000440F2FF114FF000026D
:1046200001EA030102EA04020B4614466001F86045
:10463000F86840EAD360F8605B01BB60D7E90234F8
:104640005B1A64EB0204A60146EA93669D01ED1A2B
:1046500066EB0406F3007B607B6843EA55737B607E
:10466000EB003B6097E860006D1846EB02064FEAEE
:10467000862B4BEA955B4FEA852A55465E462846CF
:104680003146FB6A4FF000041A462346FCF790FAC5
:1046900003460C467B630B4B5B681B0C03F0030368
:1046A00001335B00BB627A6BBB6AB2FBF3F33B6323
:1046B00002E0054B3B6300BF3B6B18463C37BD46F1
:1046C000BDE8F08F003802400024F40000127A00A8
:1046D00080B400AF034B1B681846BD465DF8047BF1
:1046E000704700BF3000002080B500AFFFF7F0FF3B
:1046F0000146054B9B689B0A03F00703034AD35C02
:1047000021FA03F3184680BD00380240A487000850
:1047100080B500AFFFF7DCFF0146054B9B685B0BE4
:1047200003F00703034AD35C21FA03F3184680BD64
:1047300000380240A487000880B582B000AF7860DE
:104740007B68002B01D101237AE07B685B6A002B38
:1047500008D17B685B68B3F5827F09D07B68002253
:10476000DA6105E07B6800221A617B6800225A61E9
:104770007B6800229A627B6893F85130DBB2002B91
:1047800006D17B68002283F850207868FEF7AAF8EB
:104790007B68022283F851207B681B687A68126864
:1047A000126822F040021A607B681B687A685268BF
:1047B00002F482717A68926802F4044211437A68C2
:1047C000D26802F4006211437A68126902F00202B0
:1047D00011437A68526902F0010211437A689269C2
:1047E00002F4007211437A68D26902F03802114370
:1047F0007A68126A02F0800211437A68926A02F4BF
:1048000000520A431A607B681B687A689269120C2E
:1048100002F004017A68526A02F010020A435A60F8
:104820007B681B687A681268D26922F40062DA61D8
:104830007B6800225A657B68012283F8512000239F
:1048400018460837BD4680BD80B58CB000AFF86013
:10485000B9607A607B800123FB62002387F82B30EC
:10486000FB6893F85030012B01D1022388E1FB68EB
:10487000012283F85020FEF703FC7862FB6893F86E
:10488000513087F82330FB685B68FB617B887B8352
:1048900097F82330012B0FD0FB69B3F5827F07D146
:1048A000FB689B68002B03D197F82330042B03D0BF
:1048B000022387F82B3059E1BB68002B05D07B68B9
:1048C000002B02D07B88002B03D1012387F82B30EB
:1048D0004CE1FB6893F85130DBB2042B03D0FB684A
:1048E000052283F85120FB6800225A65FB687A682C
:1048F0009A63FB687A88DA87FB687A889A87FB680C
:10490000BA681A63FB687A88DA86FB687A889A86BE
:10491000FB6800221A64FB6800225A64FB681B686B
:104920001B6803F04003402B07D0FB681B68FA6844
:104930001268126842F040021A60FB68DB68B3F547
:10494000006F78D1FB685B68002B02D07B8B012B5A
:1049500066D1FB681B68FA68126B1288DA60FB6824
:104960001B6B9A1CFB681A63FB68DB8E9BB2013BD6
:104970009AB2FB68DA8653E0FB681B689B6803F019
:104980000203022B1BD1FB68DB8E9BB2002B16D0DF
:10499000FB6A012B13D1FB681B68FA68126B128843
:1049A000DA60FB681B6B9A1CFB681A63FB68DB8E82
:1049B0009BB2013B9AB2FB68DA860023FB62FB687C
:1049C0001B689B6803F00103012B19D1FB68DB8F87
:1049D0009BB2002B14D0FB689B6BFA681268D268FC
:1049E00092B21A80FB689B6B9A1CFB689A63FB6807
:1049F000DB8F9BB2013B9AB2FB68DA870123FB6233
:104A0000FEF73EFB02467B6AD21ABB6B9A4207D383
:104A1000BB6BB3F1FF3F03D0032387F82B30A5E036
:104A2000FB68DB8E9BB2002BA6D1FB68DB8F9BB2B1
:104A3000002BA1D17CE0FB685B68002B02D07B8B54
:104A4000012B6BD1FB681B680C33FA68126B127870
:104A50001A70FB681B6B5A1CFB681A63FB68DB8EC1
:104A60009BB2013B9AB2FB68DA8657E0FB681B6891
:104A70009B6803F00203022B1CD1FB68DB8E9BB208
:104A8000002B17D0FB6A012B14D1FB681B680C3379
:104A9000FA68126B12781A70FB681B6B5A1CFB6861
:104AA0001A63FB68DB8E9BB2013B9AB2FB68DA8625
:104AB0000023FB62FB681B689B6803F00103012B6A
:104AC00019D1FB68DB8F9BB2002B14D0FB689B6B6A
:104AD000FA681268D268D2B21A70FB689B6B5A1CD3
:104AE000FB689A63FB68DB8F9BB2013B9AB2FB6861
:104AF000DA870123FB62FEF7C3FA02467B6AD21A09
:104B0000BB6B9A4203D3BB6BB3F1FF3F02D1BB6BCC
:104B1000002B03D1032387F82B3027E0FB68DB8EC3
:104B20009BB2002BA2D1FB68DB8F9BB2002B9DD1E7
:104B30007A6AB96BF86800F00BFE0346002B06D0CA
:104B4000012387F82B30FB6820225A650EE0FB68B2
:104B50009B68002B0AD100237B61FB681B68DB6824
:104B60007B61FB681B689B687B617B69FB6801223A
:104B700083F85120FB68002283F8502097F82B30EF
:104B800018463037BD4680BD80B586B000AFF860AE
:104B9000B9601346FB800023FB75FB6893F8503027
:104BA000012B01D102239BE0FB68012283F85020F6
:104BB000FB6893F85130DBB2012B02D00223FB7566
:104BC00089E0BB68002B02D0FB88002B02D10123B7
:104BD000FB7580E0FB68032283F85120FB6800220C
:104BE0005A65FB68BA681A63FB68FA889A86FB689C
:104BF000FA88DA86FB6800229A63FB6800225A640E
:104C0000FB6800221A64FB6800229A87FB68002276
:104C1000DA87FB689B68B3F5004F0FD1FB681B6810
:104C2000FA681268126822F040021A60FB681B687A
:104C3000FA681268126842F480421A60FB689B6C42
:104C4000294A1A64FB689B6C284ADA63FB689B6CF0
:104C5000274ADA64FB689B6C00221A65FB68986C33
:104C6000FB681B6B1946FB681B680C331A46FB6814
:104C7000DB8E9BB2FEF7F0FB0346002B0CD0FB68EB
:104C80005B6D43F01002FB685A650123FB75FB68FE
:104C9000012283F851201EE0FB681B681B6803F0AB
:104CA0004003402B07D0FB681B68FA681268126843
:104CB00042F040021A60FB681B68FA68126852688A
:104CC00042F020025A60FB681B68FA68126852685A
:104CD00042F002025A60FB68002283F85020FB7DFC
:104CE00018461837BD4680BDB9540008D95200088F
:104CF0000D55000880B586B000AFF860B960134666
:104D0000FB800023FB75FB689B68002B10D1FB68C0
:104D10005B68B3F5827F0BD1FB68042283F85120D6
:104D2000FB88BA68B968F86800F0ACF803469FE001
:104D3000FB6893F85030012B01D1022398E0FB6807
:104D4000012283F85020FB6893F85130DBB2012B2D
:104D500002D00223FB7586E0BB68002B02D0FB88E3
:104D6000002B02D10123FB757DE0FB68042283F850
:104D70005120FB6800225A65FB68BA689A63FB6899
:104D8000FA889A87FB68FA88DA87FB6800221A6437
:104D9000FB6800225A64FB6800229A86FB680022A6
:104DA000DA86FB689B68B3F5004F0FD1FB681B6880
:104DB000FA681268126822F040021A60FB681B68E9
:104DC000FA681268126822F480421A60FB68DB6C91
:104DD000294A1A64FB68DB6C284ADA63FB68DB6CDF
:104DE000274ADA64FB68DB6C00221A65FB68D86C22
:104DF000FB681B680C331946FB689B6B1A46FB6803
:104E0000DB8F9BB2FEF728FB0346002B0CD0FB6820
:104E10005B6D43F01002FB685A650123FB75FB686C
:104E2000012283F851201EE0FB681B681B6803F019
:104E30004003402B07D0FB681B68FA6812681268B1
:104E400042F040021A60FB681B68FA6812685268F8
:104E500042F020025A60FB681B68FA6812685268C8
:104E600042F001025A60FB68002283F85020FB7D6B
:104E700018461837BD4680BDD55400088153000838
:104E80000D55000880B586B000AFF860B9607A6053
:104E90007B800023FB75FB6893F85030012B01D118
:104EA0000223E3E0FB68012283F85020FB6893F8BB
:104EB0005130BB75FB685B683B61BB7D012B0DD03E
:104EC0003B69B3F5827F06D1FB689B68002B02D15A
:104ED000BB7D042B02D00223FB75C2E0BB68002B14
:104EE00005D07B68002B02D07B88002B02D10123E8
:104EF000FB75B6E0FB6893F85130DBB2042B03D0AE
:104F0000FB68052283F85120FB6800225A65FB6884
:104F1000BA681A63FB687A889A86FB687A88DA86A8
:104F2000FB687A689A63FB687A889A87FB687A8854
:104F3000DA87FB6800221A64FB6800225A64FB6867
:104F400093F85130DBB2042B08D1FB68DB6C494A83
:104F50001A64FB68DB6C484ADA6307E0FB68DB6CC9
:104F6000464A1A64FB68DB6C454ADA63FB68DB6C13
:104F7000444ADA64FB68DB6C00221A65FB68D86C73
:104F8000FB681B680C331946FB689B6B1A46FB6871
:104F9000DB8F9BB2FEF760FA0346002B0CD0FB6858
:104FA0005B6D43F01002FB685A650123FB75FB68DB
:104FB000012283F8512054E0FB681B68FA681268EC
:104FC000526842F001025A60FB689B6C00221A642E
:104FD000FB689B6C0022DA63FB689B6C0022DA643E
:104FE000FB689B6C00221A65FB68986CFB681B6B66
:104FF0001946FB681B680C331A46FB68DB8E9BB2B4
:10500000FEF72AFA0346002B0CD0FB685B6D43F0D9
:105010001002FB685A650123FB75FB68012283F8C7
:1050200051201EE0FB681B681B6803F04003402B07
:1050300007D0FB681B68FA681268126842F04002E9
:105040001A60FB681B68FA681268526842F0200216
:105050005A60FB681B68FA681268526842F00202E4
:105060005A60FB68002283F85020FB7D18461837F1
:10507000BD4680BDD554000881530008F154000896
:10508000295400080D55000880B588B000AF78603D
:105090007B681B685B68FB617B681B689B68BB6106
:1050A000BB6903F04003002B0ED1BB6903F0010381
:1050B000002B09D0FB6903F04003002B04D07B6870
:1050C0001B6C78689847CFE0BB6903F00203002BA4
:1050D00009D0FB6903F08003002B04D07B685B6C74
:1050E00078689847C0E0BB6903F02003002B0AD121
:1050F000BB6903F04003002B05D1BB6903F4807347
:10510000002B00F0B180FB6903F02003002B00F0BE
:10511000AB80BB6903F04003002B23D07B6893F87E
:105120005130DBB2032B11D07B685B6D43F004027E
:105130007B685A6500237B617B681B68DB687B6149
:105140007B681B689B687B617B690BE000233B618C
:105150007B681B68DB683B617B681B689B683B6105
:105160003B6981E0BB6903F02003002B14D07B680E
:105170005B6D43F001027B685A650023FB607B682E
:105180001B689B68FB607B681B687A681268126802
:1051900022F040021A60FB68BB6903F48073002BA5
:1051A0000CD07B685B6D43F008027B685A65002376
:1051B000BB607B681B689B68BB60BB687B685B6D82
:1051C000002B50D07B681B687A681268526822F006
:1051D000E0025A607B68012283F85120FB6903F0EA
:1051E0000203002B04D1FB6903F00103002B34D030
:1051F0007B681B687A681268526822F003025A6062
:105200007B68DB6C002B11D07B68DB6C184A1A655D
:105210007B68DB6C1846FEF7E7F90346002B05D0E8
:105220007B685B6D43F040027B685A657B689B6CD2
:10523000002B16D07B689B6C0D4A1A657B689B6CB3
:105240001846FEF7D1F90346002B0AD07B685B6D48
:1052500043F040027B685A6503E0786800F032F85A
:1052600000E000BF00BF00BF2037BD4680BD00BFCB
:105270004D55000880B483B000AF786000BF0C3794
:10528000BD465DF8047B704780B483B000AF7860A2
:1052900000BF0C37BD465DF8047B704780B483B017
:1052A00000AF786000BF0C37BD465DF8047B7047E7
:1052B00080B483B000AF786000BF0C37BD465DF8A6
:1052C000047B704780B483B000AF786000BF0C37B8
:1052D000BD465DF8047B704780B586B000AF78604E
:1052E0007B689B6B7B61FDF7CBFE38617B681B683D
:1052F0001B6803F48073B3F5807F3BD07B691B6828
:105300007A691268526822F020025A607B691B6831
:105310007A691268526822F002025A603A6964217E
:10532000786900F015FA0346002B05D07B695B6DA8
:1053300043F020027B695A657B699B68002B0AD188
:105340000023FB607B691B68DB68FB607B691B6873
:105350009B68FB60FB687B690022DA867B6901221F
:1053600083F851207B695B6D002B03D07869FFF7D0
:10537000A9FF02E07869FDF71DFA1837BD4680BD28
:1053800080B584B000AF78607B689B6BFB60FDF7F5
:1053900077FEB8607B681B681B6803F48073B3F505
:1053A000807F3BD0FB681B68FA681268526822F065
:1053B00020025A60FB689B68002B0DD1FB685B687C
:1053C000B3F5827F08D1FB681B68FA6812685268DF
:1053D00022F003025A6007E0FB681B68FA68126853
:1053E000526822F001025A60BA686421F86800F03D
:1053F00049F90346002B02D0FB6820225A65FB685E
:105400000022DA87FB68012283F85120FB685B6D7C
:10541000002B03D0F868FFF755FF02E0F868FDF7AE
:10542000DFF91037BD4680BD80B584B000AF78602D
:105430007B689B6BFB60FDF723FEB8607B681B6895
:105440001B6803F48073B3F5807F2FD0FB681B6863
:10545000FA681268526822F020025A60BA68642121
:10546000F86800F075F90346002B05D0FB685B6D0A
:1054700043F02002FB685A65FB681B68FA681268F3
:10548000526822F003025A60FB680022DA86FB6849
:105490000022DA87FB68012283F85120FB685B6DEC
:1054A000002B03D0F868FFF70DFF02E0F868FFF764
:1054B000E1FE1037BD4680BD80B584B000AF786096
:1054C0007B689B6BFB60F868FFF7DEFE00BF103760
:1054D000BD4680BD80B584B000AF78607B689B6BB3
:1054E000FB60F868FFF7DAFE00BF1037BD4680BDED
:1054F00080B584B000AF78607B689B6BFB60F86818
:10550000FFF7D6FE00BF1037BD4680BD80B584B022
:1055100000AF78607B689B6BFB60FB681B68FA6878
:105520001268526822F003025A60FB685B6D43F018
:105530001002FB685A65FB68012283F85120F86865
:10554000FFF7C0FE00BF1037BD4680BD80B584B0F8
:1055500000AF78607B689B6BFB60FB680022DA879A
:10556000FB680022DA86F868FFF7ACFE00BF103750
:10557000BD4680BD80B588B000AFF860B9603B60C3
:105580001346FB71FDF77CFD0246BB6A9A1A3B6825
:105590001344FB61FDF774FDB861394B1B685B0177
:1055A0001B0DFA6902FB03F37B6154E03B68B3F126
:1055B000FF3F50D0FDF764FD0246BB69D21AFB697C
:1055C0009A4202D2FB69002B3DD1FB681B68FA6846
:1055D0001268526822F0E0025A60FB685B68B3F51B
:1055E000827F11D1FB689B68B3F5004F04D0FB6844
:1055F0009B68B3F5806F07D1FB681B68FA68126877
:10560000126822F040021A60FB689B6AB3F5005FE3
:105610000FD1FB681B68FA681268126822F4005206
:105620001A60FB681B68FA681268126842F400523C
:105630001A60FB68012283F85120FB68002283F87E
:105640005020032317E07B69002B01D10023FB616D
:105650007B69013B7B61FB681B689A68BB681A40E9
:10566000BB689A420CBF01230023DBB21A46FB79C8
:105670009A429BD1002318462037BD4680BD00BF0B
:105680003000002080B586B002AFF860B9607A6063
:10569000FB685B68B3F5827F11D1FB689B68B3F54B
:1056A000004F04D0FB689B68B3F5806F07D1FB689F
:1056B0001B68FA681268126822F040021A60FB68E0
:1056C0005B68B3F5827F2AD1FB689B68B3F5806F76
:1056D00012D07B680093BB6800228021F868FFF736
:1056E00049FF0346002B2DD0FB685B6D43F0200281
:1056F000FB685A65032326E07B680093BB680022A1
:105700000121F868FFF736FF0346002B1AD0FB682B
:105710005B6D43F02002FB685A65032313E07B684E
:105720000093BB6800220121F868FFF723FF0346BE
:10573000002B07D0FB685B6D43F02002FB685A65C5
:10574000032300E0002318461037BD4680BD00004B
:1057500080B588B002AFF860B9607A601B4B1B68F7
:105760001B4AA2FB03235B0D4FF47A7202FB03F387
:105770007B61FB685B68B3F5827F12D17B68009325
:10578000BB6800228021F868FFF7F4FE0346002B77
:1057900016D0FB685B6D43F02002FB685A6503235B
:1057A0000FE07B69002B0AD07B69013B7B61FB68C2
:1057B0001B689B6803F08003802BF2D000E000BFE1
:1057C000002318461837BD4680BD00BF30000020BA
:1057D000819F5E1680B582B000AF78607B68002B39
:1057E00001D101233FE07B6893F83D30DBB2002B11
:1057F00006D17B68002283F83C207868FDF760FAC8
:105800007B68242283F83D207B681B687A681268D5
:10581000D26822F40052DA60786800F0ADFD7B684F
:105820001B687A681268126922F490421A617B68D8
:105830001B687A681268526922F02A025A617B68F2
:105840001B687A681268D26842F40052DA607B689A
:1058500000221A647B68202283F83D207B68202286
:1058600083F83E20002318460837BD4680BD00005F
:1058700080B586B000AFF860B9601346FB80FB6866
:1058800093F83D30DBB2202B53D1BB68002B02D004
:10589000FB88002B01D101234CE0FB6893F83C30DE
:1058A000012B01D1022345E0FB68012283F83C2053
:1058B000BA68FB681A62FB68FA889A84FB68FA88FF
:1058C000DA84FB6800221A64FB68212283F83D20F9
:1058D000FB685B6B194ADA63FB685B6B184A1A64F6
:1058E000FB685B6B174ADA64FB685B6B00221A6526
:1058F00007F108037B61FB68586B7B691968FB68DB
:105900001B6804331A46FB88FDF7A6FDFB681B687D
:105910006FF040021A60FB68002283F83C20FB68AD
:105920001B68FA681268526942F080025A610023CB
:1059300000E0022318461837BD4680BD355E0008DA
:10594000875E00086F5F000880B584B000AFF86024
:10595000B9601346FB80FB6893F83E30DBB2202B26
:105960001DD1BB68002B02D0FB88002B01D1012385
:1059700016E0FB6893F83C30012B01D102230FE0C5
:10598000FB68012283F83C20FB6800221A63FB8835
:105990001A46B968F86800F035FB034600E00223B8
:1059A00018461037BD4680BD80B584B000AF786022
:1059B0000023FB607B681B685B6903F08003802B1E
:1059C0000CBF01230023DBB2FB607B6893F83D3002
:1059D000DBB2212B16D1FB68002B13D07B681B6830
:1059E0007A681268526922F080025A617B685B6BA8
:1059F000002B04D07B685B6B1846FDF785FD78684B
:105A000000F064FB7B681B685B6903F04003402B7C
:105A10000CBF01230023DBB2FB607B6893F83E30B0
:105A2000DBB2222B16D1FB68002B13D07B681B68DE
:105A30007A681268526922F040025A617B689B6B57
:105A4000002B04D07B689B6B1846FDF75DFD7868E2
:105A500000F052FB002318461037BD4680BD000001
:105A600080B58AB000AF78607B681B681B687B627A
:105A70007B681B68DB683B627B681B685B69FB615A
:105A80000023BB6100237B617B6A03F00F03BB61D2
:105A9000BB69002B0DD17B6A03F02003002B08D0DB
:105AA0003B6A03F02003002B03D0786800F0CCFBA6
:105AB0007DE1BB69002B00F0B180FB6903F00103BD
:105AC000002B05D13B6A03F49073002B00F0A680F5
:105AD0007B6A03F00103002B0AD03B6A03F4807356
