:020000040800F2
:1000000000000220D95300088D2400089324000822
:10001000992400089F240008A5240008000000007F
:10002000000000000000000000000000AB240008F9
:10003000B924000800000000C7240008D5240008E7
:10004000295400082954000829540008295400089C
:10005000295400082954000829540008E124000804
:10006000EF240008295400082954000829540008E6
:10007000295400082954000829540008295400086C
:10008000FD24000811250008295400080000000084
:1000900000000000000000000000000029540008DB
:1000A000295400082954000829540008295400083C
:1000B000295400082954000829540008295400082C
:1000C000295400082954000829540008295400081C
:1000D00029540008295400082525000800000000C4
:1000E0002954000829540008295400080000000081
:1000F000000000000000000000000000295400087B
:100100000000000029540008295400082954000860
:1001100000000000000000000000000000000000DF
:1001200029540008295400082954000829540008BB
:10013000295400080000000000000000000000003A
:10014000000000000000000000000000295400082A
:10015000295400082954000829540008295400088B
:100160002954000829540008000000000000000085
:10017000000000000000000000000000000000007F
:1001800000000000295400080000000000000000EA
:0801900029540008295400085D
:1001A00010B5054C237833B9044B13B10448AFF3B1
:1001B00000800123237010BD2402002000000000F5
:1001C0001073000808B5034B1BB103490348AFF394
:1001D000008008BD00000000280200201073000805
:1001E000034613F8012B002AFBD1181A0138704777
:1001F00001F0FF01102A2BDB10F0070F08D010F8D8
:10020000013B013A8B422DD010F0070F42B3F6D1DB
:10021000F0B441EA012141EA014122F007047FF0F4
:1002200000070023F0E80256083C85EA010586EA4B
:10023000010685FA47F5A3FA87F586FA47F6A5FA87
:1002400087F68EB9EED1F0BC01F0FF0102F0070293
:1002500032B110F8013B013A83EA010313B1F8D13E
:100260000020704701387047002D06BF354603381F
:10027000073815F0010F07D1013015F4807F02BF58
:10028000013015F4C03F0130F0BC0138704700BFA9
:1002900081F0004102E000BF83F0004330B54FEA37
:1002A00041044FEA430594EA050F08BF90EA020FA4
:1002B0001FBF54EA000C55EA020C7FEA645C7FEA37
:1002C000655C00F0E2804FEA5454D4EB5555B8BF5A
:1002D0006D420CDD2C4480EA020281EA030382EACB
:1002E000000083EA010180EA020281EA0303362D5D
:1002F00088BF30BD11F0004F4FEA01314FF4801C30
:100300004CEA113102D0404261EB410113F0004F41
:100310004FEA03334CEA133302D0524263EB4303F8
:1003200094EA050F00F0A780A4F10104D5F1200E96
:100330000DDB02FA0EFC22FA05F2801841F10001F1
:1003400003FA0EF2801843FA05F359410EE0A5F1C5
:1003500020050EF1200E012A03FA0EFC28BF4CF0F6
:10036000020C43FA05F3C01851EBE37101F00045AC
:1003700007D54FF0000EDCF1000C7EEB00006EEBB9
:100380000101B1F5801F1BD3B1F5001F0CD3490843
:100390005FEA30004FEA3C0C04F101044FEA44529A
:1003A00012F5800F80F09A80BCF1004F08BF5FEA21
:1003B000500C50F1000041EB045141EA050130BD01
:1003C0005FEA4C0C404141EB010111F4801FA4F1A4
:1003D0000104E9D191F0000F04BF01460020B1FAF9
:1003E00081F308BF2033A3F10B03B3F120020CDA31
:1003F0000C3208DD02F1140CC2F10C0201FA0CF00F
:1004000021FA02F10CE002F11402D8BFC2F1200C73
:1004100001FA02F120FA0CFCDCBF41EA0C01904029
:10042000E41AA2BF01EB0451294330BD6FEA040472
:100430001F3C1CDA0C340EDC04F11404C4F120025D
:1004400020FA04F001FA02F340EA030021FA04F36F
:1004500045EA030130BDC4F10C04C4F1200220FAC6
:1004600002F001FA04F340EA0300294630BD21FA04
:1004700004F0294630BD94F0000F83F4801306BFCA
:1004800081F480110134013D4EE77FEA645C18BFBE
:100490007FEA655C29D094EA050F08BF90EA020F55
:1004A00005D054EA000C04BF1946104630BD91EA4D
:1004B000030F1EBF0021002030BD5FEA545C05D150
:1004C0004000494128BF41F0004130BD14F580048F
:1004D0003CBF01F5801130BD01F0004545F0FE4103
:1004E00041F470014FF0000030BD7FEA645C1ABF38
:1004F000194610467FEA655C1CBF0B46024650EA6F
:10050000013406BF52EA033591EA030F41F400219A
:1005100030BD00BF90F0000F04BF0021704730B520
:100520004FF4806404F132044FF000054FF00001F5
:1005300050E700BF90F0000F04BF0021704730B5B6
:100540004FF4806404F1320410F0004548BF40428B
:100550004FF000013EE700BF42004FEAE2014FEAE0
:1005600031014FEA02701FBF12F07F4393F07F4FBB
:1005700081F06051704792F0000F14BF93F07F4FED
:10058000704730B54FF4607401F0004521F0004130
:1005900020E700BF50EA010208BF704730B54FF0B6
:1005A00000050AE050EA010208BF704730B511F0BB
:1005B000004502D5404261EB41014FF4806404F1F3
:1005C00032045FEA915C3FF4DCAE4FF003025FEA75
:1005D000DC0C18BF03325FEADC0C18BF033202EBFD
:1005E000DC02C2F1200300FA03FC20FA02F001FA57
:1005F00003FE40EA0E0021FA02F11444C1E600BFF6
:1006000070B54FF0FF0C4CF4E06C1CEA11541DBFA8
:100610001CEA135594EA0C0F95EA0C0F00F0DEF873
:100620002C4481EA030621EA4C5123EA4C5350EA58
:10063000013518BF52EA033541F4801143F48013A9
:1006400038D0A0FB02CE4FF00005E1FB02E506F03A
:100650000042E0FB03E54FF00006E1FB03569CF08F
:10066000000F18BF4EF0010EA4F1FF04B6F5007F95
:1006700064F5407404D25FEA4E0E6D4146EB060607
:1006800042EAC62141EA55514FEAC52040EA5E5090
:100690004FEACE2EB4F1FD0C88BFBCF5E06F1ED83A
:1006A000BEF1004F08BF5FEA500E50F1000041EB71
:1006B000045170BD06F0004646EA010140EA02001E
:1006C00081EA0301B4EB5C04C2BFD4EB0C0541EA40
:1006D000045170BD41F480114FF0000E013C00F355
:1006E000AB8014F1360FDEBF002001F0004170BD79
:1006F000C4F10004203C35DA0C341BDC04F1140492
:10070000C4F1200500FA05F320FA04F001FA05F21D
:1007100040EA020001F0004221F0004110EBD370EA
:1007200021FA04F642EB06015EEA430E08BF20EA16
:10073000D37070BDC4F10C04C4F1200500FA04F3B9
:1007400020FA05F001FA04F240EA020001F000414B
:1007500010EBD37041F100015EEA430E08BF20EABE
:10076000D37070BDC4F1200500FA05F24EEA020E06
:1007700020FA04F301FA05F243EA020321FA04F035
:1007800001F0004121FA04F220EA020000EBD370EC
:100790005EEA430E08BF20EAD37070BD94F0000FEC
:1007A0000FD101F00046400041EB010111F4801F20
:1007B00008BF013CF7D041EA060195F0000F18BFD1
:1007C000704703F00046520043EB030313F4801F0D
:1007D00008BF013DF7D043EA0603704794EA0C0FC7
:1007E0000CEA135518BF95EA0C0F0CD050EA4106DD
:1007F00018BF52EA4306D1D181EA030101F000415A
:100800004FF0000070BD50EA410606BF1046194681
:1008100052EA430619D094EA0C0F02D150EA01368D
:1008200013D195EA0C0F05D152EA03361CBF1046CE
:1008300019460AD181EA030101F0004141F0FE416D
:1008400041F470014FF0000070BD41F0FE4141F4F1
:10085000780170BD70B54FF0FF0C4CF4E06C1CEAF1
:1008600011541DBF1CEA135594EA0C0F95EA0C0FA6
:1008700000F0A7F8A4EB050481EA030E52EA033561
:100880004FEA013100F088804FEA03334FF0805582
:1008900045EA131343EA12634FEA022245EA1115AF
:1008A00045EA10654FEA00260EF000419D4208BF60
:1008B000964244F1FD0404F5407402D25B084FEA0D
:1008C0003202B61A65EB03055B084FEA32024FF4B9
:1008D00080104FF4002CB6EB020E75EB030E22BF16
:1008E000B61A754640EA0C005B084FEA3202B6EBD6
:1008F000020E75EB030E22BFB61A754640EA5C0085
:100900005B084FEA3202B6EB020E75EB030E22BF14
:10091000B61A754640EA9C005B084FEA3202B6EB15
:10092000020E75EB030E22BFB61A754640EADC00D4
:1009300055EA060E18D04FEA051545EA16754FEA36
:1009400006164FEAC30343EA52734FEAC2025FEA54
:100950001C1CC0D111F4801F0BD141EA00014FF0E3
:1009600000004FF0004CB6E711F4801F04BF0143B4
:100970000020B4F1FD0C88BFBCF5E06F3FF6AFAED0
:10098000B5EB030C04BFB6EB020C5FEA500C50F160
:10099000000041EB045170BD0EF0004E4EEA1131E3
:1009A00014EB5C04C2BFD4EB0C0541EA045170BDEA
:1009B00041F480114FF0000E013C90E645EA060E2E
:1009C0008DE60CEA135594EA0C0F08BF95EA0C0F5C
:1009D0003FF43BAF94EA0C0F0AD150EA01347FF4A4
:1009E00034AF95EA0C0F7FF425AF104619462CE77B
:1009F00095EA0C0F06D152EA03353FF4FDAE1046DE
:100A0000194622E750EA410618BF52EA43067FF42E
:100A1000C5AE50EA41047FF40DAF52EA43057FF4BE
:100A2000EBAE12E74FF0FF3C06E000BF4FF0010CC9
:100A300002E000BF4FF0010C4DF804CD4FEA410C2D
:100A40007FEA6C5C4FEA430C18BF7FEA6C5C1BD0FA
:100A500001B050EA410C0CBF52EA430C91EA030F7B
:100A600002BF90EA020F0020704710F1000F91EAD8
:100A7000030F58BF994208BF90422CBFD8176FEAA6
:100A8000E37040F0010070474FEA410C7FEA6C5C74
:100A900002D150EA013C07D14FEA430C7FEA6C5C7B
:100AA000D6D152EA033CD3D05DF8040B704700BFA7
:100AB0008446104662468C461946634600E000BFF5
:100AC00001B5FFF7B7FF002848BF10F1000F01BDC7
:100AD0004DF808EDFFF7F4FF0CBF012000205DF892
:100AE00008FB00BF4DF808EDFFF7EAFF34BF012017
:100AF00000205DF808FB00BF4DF808EDFFF7E0FFB0
:100B000094BF012000205DF808FB00BF4DF808ED00
:100B1000FFF7CEFF94BF012000205DF808FB00BF67
:100B20004DF808EDFFF7C4FF34BF012000205DF849
:100B300008FB00BF4FEA410C7FEA6C5C02D150EA2F
:100B4000013C0AD14FEA430C7FEA6C5C02D152EAC5
:100B5000033C02D14FF0000070474FF00100704796
:100B60004FEA410212F5001215D211D56FF47873D5
:100B7000B3EB625212D94FEAC12343F0004343EA78
:100B8000505311F0004F23FA02F018BF4042704753
:100B90004FF00000704750EA013005D111F00040DD
:100BA00008BF6FF0004070474FF00000704700BF73
:100BB00053B94AB9002908BF00281CBF4FF0FF31C4
:100BC0004FF0FF3000F07AB9ADF1080C6DE904CEBA
:100BD00000F006F8DDF804E0DDE9022304B0704718
:100BE0002DE9F0478C460D460446089E002B51D156
:100BF0008A4217466DD9B2FA82FEBEF1000F0BD0C1
:100C0000CEF1200C01FA0EF520FA0CFC02FA0EF7D8
:100C10004CEA050C00FA0EF44FEA174A250CBCFB0F
:100C2000FAF81FFA87F90AFB18CC45EA0C4508FBCD
:100C300009F3AB420AD9ED1908F1FF3280F02381A4
:100C4000AB4240F22081A8F102083D44ED1AA4B263
:100C5000B5FBFAF00AFB105544EA054400FB09F91C
:100C6000A14509D9E41900F1FF3380F00A81A145BB
:100C700040F2078102383C44A4EB090440EA0840F2
:100C80000021002E61D024FA0EF40023346073603A
:100C9000BDE8F0878B4207D9002E54D0002186E8AA
:100CA00021000846BDE8F087B3FA83F1002940F03F
:100CB0008E80AB4202D3824200F2FA80841A65EB46
:100CC00003050120AC46002E3FD086E81010BDE899
:100CD000F08712B90127B7FBF2F7B7FA87FEBEF12A
:100CE000000F34D1EB1B3A0C1FFA87FC0121B3FB38
:100CF000F2F8250C02FB183345EA03450CFB08F318
:100D0000AB4207D9ED1908F1FF3002D2AB4200F235
:100D1000D1808046ED1AA3B2B5FBF2F002FB10556C
:100D200043EA05440CFB00FCA44507D9E41900F193
:100D3000FF3302D2A44500F2B8801846A4EB0C049D
:100D400040EA08409DE731463046BDE8F087CEF1E5
:100D5000200405FA0EF307FA0EF720FA04F83A0C0D
:100D600025FA04F448EA0308B4FBF2F14FEA184507
:100D700002FB11441FFA87FC45EA044501FB0CF312
:100D8000AB4200FA0EF409D9ED1901F1FF3080F001
:100D90008A80AB4240F2878002393D44EB1A1FFA49
:100DA00088F5B3FBF2F002FB103345EA034500FB84
:100DB0000CF3AB4207D9ED1900F1FF386FD2AB420B
:100DC0006DD902383D44EB1A40EA01418FE7C1F189
:100DD000200722FA07F88B4005FA01F448EA0303DA
:100DE00020FA07FE4FEA134CFD404EEA040EB5FB15
:100DF000FCF94FEA1E440CFB19551FFA83F844EA2C
:100E0000054509FB08F4AC4202FA01F200FA01FAC6
:100E100008D9ED1809F1FF3043D2AC4241D9A9F10C
:100E200002091D442D1B1FFA8EFEB5FBFCF00CFBC6
:100E300010554EEA054400FB08F8A04507D9E41810
:100E400000F1FF3529D2A04527D902381C4440EAD9
:100E50000940A4EB0804A0FB02894C45C6464D4658
:100E600015D312D056B1BAEB0E0364EB050404FAA5
:100E700007F7CB401F43CC40376074600021BDE8CA
:100E8000F0871846F8E69046E0E6C245EAD2B8EBAD
:100E9000020E69EB03050138E4E72846D7E7404630
:100EA00091E78146BEE7014678E702383C4445E7D2
:100EB000084608E7A8F102083D442BE7704700BF49
:100EC00080B500AF6B2301221146184600F034F9BB
:100ED0000346002B02DA4FF0FF3301E16A232022A0
:100EE0001146184600F028F90346002B02DA6FF08D
:100EF0000103F5E024230D221146184600F01CF9E9
:100F00000346002B02DA6FF00203E9E00A23002215
:100F10001146184600F0D0F96B238022114618467E
:100F200000F00AF90A2001F0B9FB0B230122114657
:100F3000184600F0C1F96B2301221146184600F053
:100F4000FBF80346002B02DA6FF00303C8E000F061
:100F5000CBF80346712B07D000F0C6F80346732B7D
:100F600002D06FF00403BBE06C2300221146184648
:100F700000F0E2F80346002B02DA6FF00503AFE061
:100F80001C2318221146184600F0D6F80346002B01
:100F900002DA6FF00603A3E01B2300221146184675
:100FA00000F0CAF80346002B02DA6FF0070397E05F
:100FB0001D2301221146184600F0BEF80346002BFF
:100FC00002DA6FF008038BE01A230122114618465B
:100FD00000F0B2F80346002B02DA6FF009037FE05D
:100FE00019230021184600F0A7F80346002B02DA67
:100FF0006FF00A0374E06A2320221146184600F0BD
:101000009BF80346002B02DA6FF00B0368E0242301
:101010000D221146184600F08FF80346002B02DA25
:101020006FF00C035CE000F073F80346482B02D02D
:101030006FF00D0354E00A2300221146184600F019
:101040003BF90346002B02DA6FF00E0348E0642000
:1010500001F024FB0A230F221146184600F02CF958
:101060000346002B02DA6FF00F0339E0642001F031
:1010700015FB10231B4A0321184600F073F90A23BD
:1010800000221146184600F017F90346002B02DA39
:101090006FF0100324E0642001F000FB0A23162205
:1010A0001146184600F008F90346002B02DA6FF0EB
:1010B000110315E0642001F0F1FA6B2301221146BF
:1010C000184600F039F80346002B02DA6FF01203DD
:1010D00006E00323034A0721184600F043F90123E1
:1010E000184680BD1003002080B500AF7523074A65
:1010F0000121184600F048F80346002B02DA4FF0B1
:10110000FF3301E0014B1B78184680BD100300201F
:1011100080B500AF0023074A0121184600F022F9EC
:101120000346002B02DA4FF0FF3301E0014B1B783E
:10113000184680BD1003002080B584B000AF034680
:101140000A46FB711346BB710023FB73F979BB1D83
:101150000122184600F084F80A2001F09FFAFB797A
:10116000084A0121184600F00FF8064B1A78BB799F
:101170009A4201D1012301E04FF0FF3318461037A6
:10118000BD4680BD1003002080B584B000AF03468B
:101190003A60FB710B46BB710023FB73FB79BA7994
:1011A0001946386800F02AF8FB7B002B01D1012397
:1011B00001E04FF0FF3318461037BD4680BD0000F8
:1011C00080B586B002AF0346FB710023FB7307F1C5
:1011D0000F02F91D4FF4805300930123064802F0DB
:1011E00035FE0346002B01D0FF2300E0FB7B1846B1
:1011F0001037BD4680BD00BFF803002080B582B027
:1012000000AF78600B46FB7013463B808022FB7872
:101210001343FB7000220121104802F0F3F8FB7821
:101220001846FFF7CDFF0DE000231846FFF7C8FF73
:1012300003461A467B681A703B88013B3B807B68FB
:1012400001337B603B88002BEED101220121034852
:1012500002F0D8F800BF0837BD4680BD0004024048
:1012600080B582B000AF78600B46FB7013463B80C0
:10127000002201210F4802F0C5F8FB781846FFF75D
:101280009FFF0AE07B681B781846FFF799FF3B88B1
:10129000013B3B807B6801337B603B88002BF1D1B5
:1012A00001220121034802F0ADF800BF0837BD4616
:1012B00080BD00BF0004024080B582B000AF03468D
:1012C0000A46FB711346BB7125230C2211461846B2
:1012D000FFF732FF0346002B02DA4FF0FF333BE00B
:1012E0002622FB7919461046FFF726FF0346002BFE
:1012F00002DA6FF001032FE06322BB791946104632
:10130000FFF71AFF0346002B02DA6FF0020323E017
:101310002722802343F00103DBB219461046FFF772
:101320000BFF0346002B02DA6FF0030314E0FB7996
:101330000B4A0121184600F015F80346002B02DA8B
:101340006FF0040308E0064B1B78BA799A4201D18A
:10135000012301E06FF0050318460837BD4680BD44
:101360001003002080B582B000AF03463A60FB71E5
:101370000B46BB7125200C2280231343DBB2194698
:10138000FFF7DAFE0346002B02DA4FF0FF3327E0C7
:101390002622FB7919461046FFF7CEFE0346002BA6
:1013A00002DA6FF001031BE027208022BB79134390
:1013B000DBB21946FFF7C0FE0346002B02DA6FF0DE
:1013C00002030DE0012001F069F94920BB793A6878
:1013D0001946FFF7D9FE0246034B1A60024B1B6801
:1013E00018460837BD4680BD9804002080B582B0FD
:1013F00000AF0346FB71192313211846FFF79CFE2B
:101400000346002B02DA4FF0FF3358E0FB79092B3B
:1014100024D90A23002211461846FFF74DFF034640
:10142000002B02DA6FF0010349E0642001F036F985
:101430000A23122211461846FFF73EFF0346002BEF
:1014400002DA6FF002033AE0642001F027F9032387
:101450001D4A07211846FFF785FF23E00A230022D3
:1014600011461846FFF728FF0346002B02DA6FF0FB
:10147000010324E0642001F011F90A231622114629
:101480001846FFF719FF0346002B02DA6FF002033C
:1014900015E0642001F002F903230B4A07211846E6
:1014A000FFF760FF1922FB7919461046FFF744FE4B
:1014B0000346002B02DA6FF0030300E00123184615
:1014C0000837BD4680BD00BF1003002080B500AFC7
:1014D0003723002211461846FFF72EFE0346002B45
:1014E00002DA4FF0FF330CE0382301221146184690
:1014F000FFF722FE0346002B02DA6FF0010300E043
:101500000123184680BD000080B500AF3B233E4A52
:1015100015211846FFF738FE0346002B02DA4FF07C
:10152000FF336EE0384B1B781B021AB2364B5B78E8
:101530001BB213431AB2354B1A80334B9B781B02F4
:101540001AB2314BDB781BB213431AB2304B1A80FC
:101550002D4B1B791B021AB22B4B5B791BB2134329
:101560001AB22C4B1A80284B9B791B021AB2264BBD
:10157000DB791BB213431AB2274B1A80224B1B7A1A
:101580001B021AB2204B5B7A1BB213431AB2234BD5
:101590001A801D4B9B7A1B021AB21B4BDB7A1BB2C3
:1015A00013431AB21E4B1A80174B1B7B1B021AB235
:1015B000154B5B7B1BB213431AB21A4B1A80124BAA
:1015C000DB7B1B021AB2104B9B7B1BB213431AB27C
:1015D000154B1A800C4B5B7C1B021AB20A4B1B7C0E
:1015E0001BB213431AB2114B1A80074BDB7C1B0250
:1015F0001AB2054B9B7C1BB213431AB20C4B1A80D8
:101600000123184680BD00BF10030020880300207E
:1016100026030020A00400209E0400209003002048
:10162000EC0200209C040020A2040020680200209C
:101630005004002080B582B000AF00F0BDFF00F084
:101640005FF800F063F900F039F900F0D7F800F026
:101650000BF900F0BFF8254B1B68244A1268D268CA
:1016600042F01002DA601E222149204802F0A2FF57
:10167000FFF726FC7860642001F010F8FFF726FFE2
:10168000642001F00BF80020FFF7B0FE194B1B7827
:10169000012BFBD1174B00221A70154800F0B6FD44
:1016A000124B1B68114A1268D26842F01002DA60CD
:1016B0001D220F490D4802F07DFF0F4B1B78012BB7
:1016C00007D10E4B1B68184600F0E8FF00F012FC33
:1016D000DCE7094B1B78022BD8D1084B1B68184656
:1016E00000F0DCFF00F020FCD0E700BF5404002035
:1016F000F0020020400200204102002040000020B3
:1017000080B594B000AF07F12003302200211846C5
:1017100003F0BAFE07F10C0300221A605A609A60C7
:10172000DA601A610023BB60284A284B1B6C43F027
:1017300080531364254B1B6C03F08053BB60BB6864
:1017400000237B60224A224B1B6843F44043136012
:101750001F4B1B6803F440437B607B6801233B62A3
:101760004FF480337B620223BB634FF48003FB633F
:1017700008233B644FF4A8737B640423BB640423F5
:10178000FB6407F12003184601F06EFE0346002BB0
:1017900001D000F053FD0F23FB6002233B610023C7
:1017A0007B614FF48053BB610023FB6107F10C03A5
:1017B0000221184602F0D0F80346002B01D000F0B9
:1017C0003DFD00BF5037BD4680BD00BF0038024020
:1017D0000070004080B500AF00220021072001F01A
:1017E00058F8072001F071F800220021082001F0CC
:1017F00050F8082001F069F800BF80BD80B500AF47
:10180000174B184A1A60164B4FF482725A60144BE9
:1018100000229A60124B0022DA60114B00221A61FA
:101820000F4B00225A610E4B4FF400729A610C4B21
:101830001822DA610A4B00221A62094B00225A620E
:10184000074B00229A62064B0A22DA62044802F031
:1018500075FA0346002B01D000F0F0FC00BF80BDFC
:10186000F80300200030014080B500AF114B124A50
:101870001A60104B4FF4E1225A600E4B00229A601E
:101880000C4B0022DA600B4B00221A61094B0C2230
:101890005A61084B00229A61064B0022DA61054822
:1018A00002F03EFD0346002B01D000F0C7FC00BF54
:1018B00080BD00BF540400200044004080B582B0C9
:1018C00000AF00237B60104A0F4B1B6B43F40013E7
:1018D00013630D4B1B6B03F400137B607B680022CA
:1018E0000021102000F0D5FF102000F0EEFF0022B4
:1018F0000021112000F0CDFF112000F0E6FF00BF15
:101900000837BD4680BD00BF0038024080B588B0B2
:1019100000AF07F10C0300221A605A609A60DA6087
:101920001A610023BB602F4A2E4B1B6B43F08003D0
:1019300013632C4B1B6B03F08003BB60BB6800235D
:101940007B60284A274B1B6B43F001031363254B35
:101950001B6B03F001037B607B6800233B60214A23
:10196000204B1B6B43F0020313631E4B1B6B03F0F6
:1019700002033B603B68002210211B4801F042FD3E
:1019800000220121194801F03DFD1023FB600123D5
:101990003B6100237B610023BB6107F10C03194607
:1019A000114801F0ADFB0123FB6001233B610023E3
:1019B0007B610023BB6107F10C0319460B4801F062
:1019C0009FFB0623FB600A4B3B6100237B6107F111
:1019D0000C031946054801F093FB00BF2037BD46B4
:1019E00080BD00BF003802400000024000040240F9
:1019F0000000111080B400AF114BB3F900301B028E
:101A0000104AB2F9002013440F4A13600F4BB3F988
:101A100000301B020E4AB2F9002013440D4A136035
:101A20000D4BB3F900301B020C4AB2F900201344ED
:101A30000B4A136000BFBD465DF8047B704700BFD2
:101A40008803002090030020440200202603002089
:101A5000EC02002048020020A00400209C0400208A
:101A60004C020020000000002DE9B04300AF9A4B6B
:101A70001B685B4207EE903AF8EEE77A17EE900AA1
:101A8000FEF76AFD04460D46944B1B6807EE903A3C
:101A9000F8EEE77A17EE900AFEF75EFD02460B4677
:101AA0009FED891B43EC102B04F07AFB59EC108B53
:101AB0008B4B1B6807EE903AF8EEE77A17EE900A28
:101AC000FEF74AFD02460B469FED7F1B43EC102BB1
:101AD00004F066FB53EC102B40464946FEF7DEFB54
:101AE00002460B4643EC172BB0EE470AF0EE670AAE
:101AF00004F0CEFC53EC102B20462946FEF7AAFE3C
:101B000003460C4644EC173BB0EE470AF0EE670A7A
:101B100004F096F951EC100B6DA3D3E90023FEF706
:101B20006FFD03460C4618462146FFF719F802469A
:101B30006C4B1A60694B1B685B4207EE903AF8EEFB
:101B4000E77A17EE900AFEF707FD04460D46624B52
:101B50001B6807EE903AF8EEE77A17EE900AFEF768
:101B6000FBFC02460B469FED581B43EC102B04F088
:101B700017FB59EC108B5A4B1B6807EE903AF8EEA6
:101B8000E77A17EE900AFEF7E7FC02460B469FED58
:101B90004E1B43EC102B04F003FB53EC102B404680
:101BA0004946FEF77BFB02460B4643EC172BB0EE93
:101BB000470AF0EE670A04F06BFC53EC102B20464A
:101BC0002946FEF747FE03460C4644EC173BB0EEB1
:101BD000470AF0EE670A04F033F951EC100B3CA30E
:101BE000D3E90023FEF70CFD03460C4618462146B8
:101BF000FEF7B6FF02463C4B1A60394B1B685B424E
:101C000007EE903AF8EEE77A17EE900AFEF7A4FC9A
:101C100004460D46304B1B6807EE903AF8EEE77A23
:101C200017EE900AFEF798FC02460B469FED261B26
:101C300043EC102B04F0B4FA59EC108B274B1B68C3
:101C400007EE903AF8EEE77A17EE900AFEF784FC7A
:101C500002460B469FED1C1B43EC102B04F0A0FA30
:101C600053EC102B40464946FEF718FB02460B4644
:101C700043EC172BB0EE470AF0EE670A04F008FCBD
:101C800053EC102B20462946FEF7E4FD03460C4694
:101C900044EC173BB0EE470AF0EE670A04F0D0F8C8
:101CA00051EC100B0AA3D3E90023FEF7A9FC03466D
:101CB0000C4618462146FEF753FF02460B4B1A60AE
:101CC00000BFBDE8B08300BF00000000000000407E
:101CD000F6285C8FC2A54C40440200204802002038
:101CE0004C02002050020020540200205802002024
:101CF00080B483B000AF0346FB80FB88022B02D187
:101D0000044B01221A7000BF0C37BD465DF8047BFE
:101D1000704700BF4002002080B500AF0648FEF7C4
:101D20005FFA03469AB24FF47A730349034802F00C
:101D300044FB00BF80BD00BF2000002054040020F1
:101D400080B588B002AFF860B9607A602023FB7577
:101D50002023BB7520237B75604B1B78FB755F4B85
:101D60005B78BB755D4B9B787B75FB7D582B15D1E4
:101D7000BB7D0A2B12D17B7D0A2B0FD1FA68584903
:101D8000584803F089FB5748FEF72AFA03469BB2EE
:101D90001A465449544802F0A1FB9BE0FB7D0A2BF4
:101DA00015D1BB7D592B12D17B7D0A2B0FD1BA687F
:101DB0004B494C4803F070FB4A48FEF711FA0346C2
:101DC0009BB21A464749484802F088FB82E0FB7DF7
:101DD0000A2B15D1BB7D0A2B12D17B7D5A2B0FD13B
:101DE0007A683F493F4803F057FB3E48FEF7F8F951
:101DF00003469BB21A463B493B4802F06FFB69E041
:101E0000FB7D582B16D1BB7D592B13D17B7D0A2B23
:101E100010D1BB68FA683549324803F03DFB3148C0
:101E2000FEF7DEF903469BB21A462E492E4802F011
:101E300055FB4FE0FB7D0A2B16D1BB7D592B13D1EF
:101E40007B7D5A2B10D17B68BA682849254803F05E
:101E500023FB2448FEF7C4F903469BB21A462149E6
:101E6000214802F03BFB35E0FB7D582B16D1BB7DB2
:101E70000A2B13D17B7D5A2B10D17B68FA681B4942
:101E8000184803F009FB1748FEF7AAF903469BB26E
:101E90001A461449144802F021FB1BE0FB7D582B25
:101EA00018D1BB7D592B15D17B7D5A2B12D17B6864
:101EB0000093BB68FA680E490A4803F0EDFA094836
:101EC000FEF78EF903469BB21A460649064802F011
:101ED00005FBFFE700BF1837BD4680BD340000207A
:101EE000287300086C02002054040020307300089E
:101EF0003C73000880B500AFFFF706FBFFF77AFDE3
:101F0000064B1B681846064B1B681946054B1B6899
:101F10001A46FFF715FF00BF80BD00BF4402002036
:101F2000480200204C02002080B500AFFFF7ECFA19
:101F3000FFF760FDFFF798FD064B1B681846064B40
:101F40001B681946054B1B681A46FFF7F9FE00BFD0
:101F500080BD00BF50020020540200205802002023
:101F600080B483B000AF0346FB80FB88B3F5FA7FF3
:101F700008D9FB8842F20F72934203D8FB88064AC5
:101F8000136003E0044B4FF4FA721A6000BF0C3781
:101F9000BD465DF8047B70474000002080B590B0DE
:101FA00000AF78600023FB870CE0FB8FFA8F796825
:101FB0000A44127807F140010B4403F8382CFB8FD8
:101FC0000133FB87FB8F1D2BEFD9002387F83D30B2
:101FD00000237B8700233B871CE0674B1B887A8F9D
:101FE0009A4206D1012387F83D30644B01221A70D2
:101FF00015E03B8F07F14002134413F8382C3B8F58
:102000005F49CB5C9A4209D17B8F01337B873B8F41
:1020100001333B873B8F1D2BDFD900E000BF00233E
:10202000FB860023BB861CE0564B1B88FA8E9A4227
:1020300006D1022387F83D30504B02221A7015E07A
:10204000BB8E07F14002134413F8382CBB8E4E4967
:10205000CB5C9A4209D1FB8E0133FB86BB8E0133E8
:10206000BB86BB8E1D2BDFD900E000BF00237B8623
:1020700000233B8619E0454B1B887A8E9A4203D198
:10208000032387F83D3015E03B8E07F140021344EF
:1020900013F8382C3B8E3E49CB5C9A4209D17B8E9B
:1020A00001337B863B8E01333B863B8E1D2BE2D971
:1020B00000E000BF0023FB850023BB8597F83D307F
:1020C000022B0AD0032B0FD0012B14D17B8F0133AD
:1020D000FB857B8F0533BB850DE0FB8E0133FB85D4
:1020E000FB8E0533BB8506E07B8E0133FB857B8E43
:1020F0000533BB8500BFFB8D7B8500233B850EE050
:102100003B8D7A8D07F140010A4412F8381C214AB0
:10211000D1547B8D01337B853B8D01333B857A8D9B
:10212000BB8D9A42ECD397F83D30012B02D1FFF7DB
:10213000E1FE1CE097F83D30022B02D1FFF7F4FEE0
:1021400015E097F83D30032B0BD10023FB84114899
:1021500003F06BF90346FB84FB8C1846FFF700FF86
:1021600005E097F83D30002B01D1FFF7D5FD00BF0A
:102170004037BD4680BD00BF38000020410200202E
:10218000000000203A0000200C0000203C0000204D
:10219000180000203400002080B584B000AF7860C3
:1021A0007B681B680D4A934214D17B681B681B68CF
:1021B00003F01003102B0DD10023FB607B681B681C
:1021C0001B68FB607B681B685B68FB60FB6878686A
:1021D00000F006F800BF1037BD4680BD0044004047
:1021E00080B582B000AF7860786802F013FA054BD2
:1021F00001221A700448FFF7D1FE00BF0837BD4620
:1022000080BD00BF42020020F002002080B485B0F3
:1022100000AF78600023FB7307E0FB7B7A68134410
:102220000A221A70FB7B0133FB73FB7B1D2BF4D955
:1022300000BF1437BD465DF8047B704780B400AF23
:1022400072B6FEE780B582B000AF00237B60104A13
:102250000F4B5B6C43F4804353640D4B5B6C03F496
:1022600080437B607B6800233B60094A084B1B6C02
:1022700043F080531364064B1B6C03F080533B60A8
:102280003B68072000F0FAFA00BF0837BD4680BD62
:102290000038024080B58AB000AF786007F11403BF
:1022A00000221A605A609A60DA601A617B681B68C3
:1022B000194A93422BD100233B61184A174B5B6CA0
:1022C00043F480535364154B5B6C03F480533B61C0
:1022D0003B690023FB60114A104B1B6B43F0010369
:1022E00013630E4B1B6B03F00103FB60FB68E023E1
:1022F0007B610223BB610023FB6103233B62052357
:102300007B6207F114031946054800F0F9FE00BF8F
:102310002837BD4680BD00BF003001400038024074
:102320000000024080B58AB000AF786007F1140366
:1023300000221A605A609A60DA601A617B681B6832
:102340004B4A934240F0908000233B61494A494BFD
:102350001B6C43F400331364464B1B6C03F40033D3
:102360003B613B690023FB60424A424B1B6B43F0DD
:10237000010313633F4B1B6B03F00103FB60FB681E
:102380000C237B610223BB610023FB6103233B62BF
:1023900007237B6207F114031946374800F0B0FEAB
:1023A000364B374A1A60354B4FF000625A60334B58
:1023B00000229A60314B0022DA60304B4FF4806289
:1023C0001A612E4B00225A612C4B00229A612B4B32
:1023D0000022DA61294B00221A62284B00225A623D
:1023E000264800F08DFA0346002B01D0FFF726FFA8
:1023F0007B68224A9A63214A7B689363214B224A75
:102400001A60204B4FF000625A601E4B40229A60C7
:102410001C4B0022DA601B4B4FF480621A61194B8F
:1024200000225A61174B00229A61164B0022DA6192
:10243000144B00221A62134B00225A62114800F01A
:102440005FFA0346002B01D0FFF7F8FE7B680D4AC8
:102450005A630C4A7B68936300220021262000F017
:1024600018FA262000F031FA00BF2837BD4680BD9B
:102470000044004000380240000002408C0200206E
:102480008860024028030020A060024080B400AFB2
:10249000FEE780B400AFFEE780B400AFFEE780B493
:1024A00000AFFEE780B400AFFEE780B400AF00BF2E
:1024B000BD465DF8047B704780B400AF00BFBD46E9
:1024C0005DF8047B704780B400AF00BFBD465DF887
:1024D000047B704780B500AF00F0C0F800BF80BD3E
:1024E00080B500AF022000F0A7FF00BF80BD80B51F
:1024F00000AF042000F0A0FF00BF80BD80B500AF9A
:10250000024800F095FB00BF80BD00BF8C02002098
:1025100080B500AF024800F08BFB00BF80BD00BF5C
:102520002803002080B500AF034802F0CFF802482E
:10253000FFF732FE00BF80BD5404002080B584B098
:1025400000AF7860114B1B68002B02D10F4B104A73
:102550001A600E4B1B68FB600C4B1A687B681344B7
:102560006A46934207D902F065FF02460C231360C6
:102570004FF0FF3306E0054B1A687B681344034AAB
:102580001360FB6818461037BD4680BD5C02002012
:10259000AC04002080B400AF064A064BD3F8883064
:1025A00043F47003C2F8883000BFBD465DF8047B79
:1025B000704700BF00ED00E080B500AF0E4A0E4B43
:1025C0001B6843F4007313600B4A0B4B1B6843F406
:1025D00080631360084A084B1B6843F480731360E0
:1025E000032000F04BF9002000F008F8FFF72AFE66
:1025F0000023184680BD00BF003C024080B582B079
:1026000000AF7860124B1A68124B1B7819464FF4D2
:102610007A73B3FBF1F3B2FBF3F3184600F063F9FE
:102620000346002B01D001230EE07B680F2B0AD854
:10263000002279684FF0FF3000F02BF9064A7B68E2
:102640001360002300E0012318460837BD4680BD13
:10265000440000204C0000204800002080B400AF5F
:10266000064B1B781A46064B1B681344044A13603A
:1026700000BFBD465DF8047B704700BF4C000020E2
:10268000A404002080B400AF034B1B681846BD466D
:102690005DF8047B704700BFA404002080B584B0BF
:1026A00000AF7860FFF7EEFFB8607B68FB60FB6807
:1026B000B3F1FF3F05D0094B1B781A46FB68134462
:1026C000FB6000BFFFF7DEFF0246BB68D21AFB6863
:1026D0009A42F7D300BF1037BD4680BD4C000020A2
:1026E00080B485B000AF78607B6803F00703FB60BF
:1026F0000C4BDB68BB60BA684FF6FF031340BB604E
:10270000FB681A02BB68134343F0BF6343F4003312
:10271000BB60044ABB68D36000BF1437BD465DF898
:10272000047B704700ED00E080B400AF044BDB6831
:102730001B0A03F007031846BD465DF8047B70478B
:1027400000ED00E080B483B000AF0346FB7197F961
:102750000730002B0BDB094997F907305B09FA7941
:1027600002F01F02012000FA02F241F8232000BF0C
:102770000C37BD465DF8047B704700BF00E100E008
:1027800080B483B000AF03463960FB7197F907301E
:10279000002B0ADB0D4997F907303A68D2B21201D3
:1027A000D2B20B4483F800230AE00949FB7903F015
:1027B0000F03043B3A68D2B21201D2B20B441A762C
:1027C00000BF0C37BD465DF8047B704700E100E0B8
:1027D00000ED00E080B489B000AFF860B9607A60C5
:1027E000FB6803F00703FB61FB69C3F10703042BDC
:1027F00028BF0423BB61FB690433062B02D9FB69A4
:10280000033B00E000237B610122BB6902FA03F372
:102810005A1EBB681A407B699A4001217B6901FA04
:1028200003F3591E7B680B40134318462437BD46FB
:102830005DF8047B7047000080B582B000AF78601F
:102840007B68013BB3F1807F01D301230FE00A4A8B
:102850007B68013B53600F214FF0FF30FFF790FF83
:10286000054B00229A60044B07221A600023184689
:102870000837BD4680BD00BF10E000E080B582B0E3
:1028800000AF78607868FFF72BFF00BF0837BD46C0
:1028900080BD80B586B000AF0346B9607A60FB7337
:1028A00000237B61FFF740FF78617A68B968786937
:1028B000FFF790FF024697F90F3011461846FFF7D1
:1028C0005FFF00BF1837BD4680BD80B582B000AF46
:1028D0000346FB7197F907301846FFF733FF00BF37
:1028E0000837BD4680BD80B582B000AF786078689B
:1028F000FFF7A2FF034618460837BD4680BD00001B
:1029000080B586B000AF786000237B61FFF7BAFE28
:1029100038617B68002B01D1012399E07B6800229C
:1029200083F834207B68022283F835207B681B689B
:102930007A681268126822F001021A600FE0FFF74D
:10294000A1FE02463B69D31A052B08D97B682022D9
:102950005A657B68032283F83520032378E07B687F
:102960001B681B6803F00103002BE8D17B681B6820
:102970001B687B617A69384B13407B617B685A68BE
:102980007B689B681A437B68DB681A437B681B691A
:102990001A437B685B691A437B689B691A437B68AF
:1029A000DB691A437B681B6A13437A6913437B61B3
:1029B0007B685B6A042B07D17B68DA6A7B681B6BD8
:1029C00013437A6913437B617B681B687A691A60D9
:1029D0007B681B685B697B617B6923F007037B6114
:1029E0007B685B6A7A6913437B617B685B6A042B53
:1029F00017D17B689B6A7A6913437B617B68DB6ACA
:102A0000002B0ED0786800F001FB0346002B08D0A5
:102A10007B6840225A657B68012283F835200123B8
:102A200016E07B681B687A695A61786800F0B8FA2A
:102A30000346FB607B68DB6D3F229A40FB689A602F
:102A40007B6800225A657B68012283F835200023C9
:102A500018461837BD4680BD3F8010F080B586B05F
:102A600000AFF860B9607A603B600023FB75FB68DB
:102A70009B6D3B61FB6893F83430012B01D102233D
:102A800040E0FB68012283F83420FB6893F835307E
:102A9000DBB2012B2FD1FB68022283F83520FB68C3
:102AA00000225A653B687A68B968F86800F04AFA0B
:102AB000FB68DB6D3F229A403B699A60FB681B68AC
:102AC000FA681268126842F016021A60FB681B6C02
:102AD000002B07D0FB681B68FA681268126842F086
:102AE00008021A60FB681B68FA681268126842F0F4
:102AF00001021A6005E0FB68002283F834200223FB
:102B0000FB75FB7D18461837BD4680BD80B584B087
:102B100000AF78607B689B6DFB60FFF7B3FDB8602A
:102B20007B6893F83530DBB2022B08D07B688022BB
:102B30005A657B68002283F83420012352E07B68C9
:102B40001B687A681268126822F016021A607B68A5
:102B50001B687A681268526922F080025A617B68A9
:102B60001B6C002B03D17B689B6C002B07D07B6810
:102B70001B687A681268126822F008021A607B6883
:102B80001B687A681268126822F001021A6013E06A
:102B9000FFF778FD0246BB68D31A052B0CD97B687A
:102BA00020225A657B68002283F834207B68032248
:102BB00083F83520032315E07B681B681B6803F04E
:102BC0000103002BE4D17B68DB6D3F229A40FB6858
:102BD0009A607B68002283F834207B68012283F8A6
:102BE0003520002318461037BD4680BD80B483B021
:102BF00000AF78607B6893F83530DBB2022B04D0ED
:102C00007B6880225A6501230CE07B68052283F8EB
:102C100035207B681B687A681268126822F001020E
:102C20001A60002318460C37BD465DF8047B7047D8
:102C300080B586B000AF78600023BB60924B1B6804
:102C4000924AA2FB03239B0A7B617B689B6D3B61DD
:102C50003B691B68FB607B68DB6D08229A40FB6860
:102C60001340002B1AD07B681B681B6803F0040319
:102C7000002B13D07B681B687A681268126822F0F8
:102C800004021A607B68DB6D08229A403B699A60F7
:102C90007B685B6D43F001027B685A657B68DB6D86
:102CA00001229A40FB681340002B12D07B681B68FE
:102CB0005B6903F08003002B0BD07B68DB6D012286
:102CC0009A403B699A607B685B6D43F002027B68C7
:102CD0005A657B68DB6D04229A40FB681340002B29
:102CE00012D07B681B681B6803F00203002B0BD01B
:102CF0007B68DB6D04229A403B699A607B685B6D60
:102D000043F004027B685A657B68DB6D10229A40B1
:102D1000FB681340002B43D07B681B681B6803F0E3
:102D20000803002B3CD07B68DB6D10229A403B6986
:102D30009A607B681B681B6803F48023002B18D003
:102D40007B681B681B6803F40023002B08D17B6899
:102D50001B6C002B24D07B681B6C786898471FE0A5
:102D60007B689B6C002B1BD07B689B6C78689847BA
:102D700016E07B681B681B6803F48073002B07D187
:102D80007B681B687A681268126822F008021A6071
:102D90007B681B6C002B03D07B681B6C78689847A2
:102DA0007B68DB6D20229A40FB681340002B00F00B
:102DB0008E807B681B681B6803F01003002B00F0FB
:102DC00086807B68DB6D20229A403B699A607B6835
:102DD00093F83530DBB2052B36D17B681B687A68F7
:102DE0001268126822F016021A607B681B687A6803
:102DF0001268526922F080025A617B681B6C002BBA
:102E000003D17B689B6C002B07D07B681B687A68BA
:102E10001268126822F008021A607B68DB6D3F229C
:102E20009A403B699A607B68002283F834207B6873
:102E3000012283F835207B681B6D002B7DD07B68D9
:102E40001B6D7868984778E07B681B681B6803F403
:102E50008023002B1CD07B681B681B6803F40023B5
:102E6000002B08D17B685B6C002B30D07B685B6CDF
:102E7000786898472BE07B68DB6B002B27D07B685A
:102E8000DB6B7868984722E044000020B5814E1B38
:102E90007B681B681B6803F48073002B0FD17B6871
:102EA0001B687A681268126822F010021A607B6848
:102EB000002283F834207B68012283F835207B6868
:102EC000DB6B002B03D07B68DB6B786898477B68F3
:102ED0005B6D002B32D07B685B6D03F00103002B30
:102EE00022D07B68052283F835207B681B687A68CE
:102EF0001268126822F001021A60BB680133BB60DD
:102F00007A69934207D87B681B681B6803F001034A
:102F1000002BF2D100E000BF7B68002283F8342050
:102F20007B68012283F835207B68DB6C002B05D0A1
:102F30007B68DB6C7868984700E000BF1837BD46B7
:102F400080BD00BF80B485B000AFF860B9607A6022
:102F50003B60FB681B68FA681268126822F48022E2
:102F60001A60FB681B683A685A60FB689B68402BD4
:102F700008D1FB681B687A689A60FB681B68BA68AE
:102F8000DA6007E0FB681B68BA689A60FB681B6838
:102F90007A68DA6000BF1437BD465DF8047B70477D
:102FA00080B485B000AF78607B681B68DBB2103BF3
:102FB000144AA2FB03231B09FB60134AFB6813445A
:102FC0001B781A467B68DA65FB68032B09D97B6896
:102FD0001B6823F47F7323F003031A1D7B689A6533
:102FE00007E07B681B6823F47F7323F003037A6890
:102FF00093657B689B6D18461437BD465DF8047B6E
:10300000704700BFABAAAAAA6873000880B485B055
:1030100000AF78600023FB737B689B6ABB607B68B2
:103020009B69002B1FD1BB68032B55D801A252F816
:1030300023F000BF45300008573000084530000835
:10304000D93000087B68DB6A03F08073002B45D021
:103050000123FB7342E07B68DB6AB3F1C07F3FD1A1
:103060000123FB733CE07B689B69B3F5005F21D1D2
:10307000BB68032B36D801A252F823F08D3000082C
:10308000933000088D300008A53000080123FB7341
:103090002FE07B68DB6A03F08073002B24D00123D0
:1030A000FB7321E07B68DB6AB3F1C07F1ED1012393
:1030B000FB731BE0BB68022B02D9032B03D018E083
:1030C0000123FB7315E07B68DB6A03F08073002B40
:1030D0000ED00123FB730BE000BF0AE000BF08E045
:1030E00000BF06E000BF04E000BF02E000BF00E058
:1030F00000BFFB7B18461437BD465DF8047B704764
:1031000080B489B000AF7860396000237B61002310
:103110003B610023BB610023FB6159E10122FB6994
:1031200002FA03F37B613B681A687B6913403B61D9
:103130003A697B699A4240F048813B685B6803F0DA
:103140000303012B05D03B685B6803F00303022BEC
:1031500030D17B689B68BB61FB695B00032202FA8C
:1031600003F3DB43BA691340BB613B68DA68FB6970
:103170005B0002FA03F3BA691343BB617B68BA6967
:103180009A607B685B68BB610122FB6902FA03F30A
:10319000DB43BA691340BB613B685B681B0903F002
:1031A0000102FB6902FA03F3BA691343BB617B684E
:1031B000BA695A603B685B6803F00303032B17D0BE
:1031C0007B68DB68BB61FB695B00032202FA03F3E7
:1031D000DB43BA691340BB613B689A68FB695B00DB
:1031E00002FA03F3BA691343BB617B68BA69DA6018
:1031F0003B685B6803F00303022B23D1FB69DA0809
:103200007B68083253F82230BB61FB6903F0070387
:103210009B000F2202FA03F3DB43BA691340BB6140
:103220003B681A69FB6903F007039B0002FA03F38A
:10323000BA691343BB61FB69DA087B680832B96974
:1032400043F822107B681B68BB61FB695B000322AB
:1032500002FA03F3DB43BA691340BB613B685B6866
:1032600003F00302FB695B0002FA03F3BA6913433C
:10327000BB617B68BA691A603B685B6803F0805386
:10328000002B00F0A2800023FB60564A554B5B6C7C
:1032900043F480435364534B5B6C03F48043FB6003
:1032A000FB68514AFB699B08023352F82330BB612B
:1032B000FB6903F003039B000F2202FA03F3DB43D5
:1032C000BA691340BB617B68484A934219D07B6856
:1032D000474A934213D07B68464A93420DD07B689D
:1032E000454A934207D07B68444A934201D1042364
:1032F00008E0072306E0032304E0022302E00123A1
:1033000000E00023FA6902F0030292009340BA69D8
:103310001343BB613449FB699B080233BA6941F826
:103320002320374B1B68BB613B69DB43BA69134001
:10333000BB613B685B6803F48033002B03D0BA6940
:103340003B691343BB612E4ABB6913602C4B5B681E
:10335000BB613B69DB43BA691340BB613B685B6897
:1033600003F40033002B03D0BA693B691343BB61FC
:10337000234ABB695360224B9B68BB613B69DB43BB
:10338000BA691340BB613B685B6803F48013002B90
:1033900003D0BA693B691343BB61194ABB699360A7
:1033A000174BDB68BB613B69DB43BA691340BB6108
:1033B0003B685B6803F40013002B03D0BA693B69D8
:1033C0001343BB610E4ABB69D360FB690133FB61E8
:1033D000FB690F2B7FF6A2AE00BF2437BD465DF818
:1033E000047B704700380240003801400000024072
:1033F0000004024000080240000C0240001002409D
:10340000003C014080B483B000AF78600B467B8005
:1034100013467B707B78002B03D07A887B689A6197
:1034200003E07B881A047B689A6100BF0C37BD46B5
:103430005DF8047B7047000080B582B000AF0346A2
:10344000FB80084B5A69FB881340002B06D0054AC5
:10345000FB885361FB881846FEF74AFC00BF08371B
:10346000BD4680BD003C014080B586B000AF7860AD
:103470007B68002B01D1012364E27B681B6803F0A9
:103480000103002B75D0A34B9B6803F00C03042BA6
:103490000CD0A04B9B6803F00C03082B12D19D4B62
:1034A0005B6803F48003B3F5800F0BD1994B1B6865
:1034B00003F40033002B5BD07B685B68002B57D193
:1034C00001233FE27B685B68B3F5803F06D1914AF8
:1034D000904B1B6843F4803313601DE07B685B688E
:1034E000B3F5A02F0CD18B4A8A4B1B6843F4802381
:1034F0001360884A874B1B6843F4803313600BE0EA
:10350000844A844B1B6823F480331360814A814BC7
:103510001B6823F4802313607B685B68002B13D047
:10352000FFF7B0F8386108E0FFF7ACF802463B69F6
:10353000D31A642B01D9032304E2764B1B6803F4EE
:103540000033002BF0D014E0FFF79CF8386108E05E
:10355000FFF798F802463B69D31A642B01D903237D
:10356000F0E16C4B1B6803F40033002BF0D100E05A
:1035700000BF7B681B6803F00203002B63D0654B20
:103580009B6803F00C03002B0BD0624B9B6803F08D
:103590000C03082B1CD15F4B5B6803F48003002BEA
:1035A00016D15C4B1B6803F00203002B05D07B682F
:1035B000DB68012B01D00123C4E15649554B1B6840
:1035C00023F0F8027B681B69DB0013430B603AE0D1
:1035D0007B68DB68002B20D04F4B01221A60FFF77D
:1035E00051F8386108E0FFF74DF802463B69D31AFD
:1035F000022B01D90323A5E1464B1B6803F002030C
:10360000002BF0D04349434B1B6823F0F8027B6842
:103610001B69DB0013430B6015E03F4B00221A606F
:10362000FFF730F8386108E0FFF72CF802463B69F5
:10363000D31A022B01D9032384E1364B1B6803F014
:103640000203002BF0D17B681B6803F00803002BFA
:1036500030D07B685B69002B16D0304B01221A609A
:10366000FFF710F8386108E0FFF70CF802463B69F5
:10367000D31A022B01D9032364E1264B5B6F03F0BD
:103680000203002BF0D015E0244B00221A60FEF755
:10369000F9FF386108E0FEF7F5FF02463B69D31AEF
:1036A000022B01D903234DE11A4B5B6F03F0020398
:1036B000002BF0D17B681B6803F00403002B00F0A3
:1036C000A0800023FB75134B1B6C03F08053002B71
:1036D0000FD10023BB600F4A0E4B1B6C43F080538D
:1036E00013640C4B1B6C03F08053BB60BB6801235D
:1036F000FB750B4B1B6803F48073002B21D1084A28
:10370000074B1B6843F480731360FEF7BBFF3861FF
:1037100011E000BF0038024000004742800E4742DF
:1037200000700040FEF7AEFF02463B69D31A022B41
:1037300001D9032306E1854B1B6803F48073002B3A
:10374000F0D07B689B68012B06D1814A804B1B6FB0
:1037500043F0010313671CE07B689B68052B0CD1C9
:103760007B4A7B4B1B6F43F004031367784A784B0B
:103770001B6F43F0010313670BE0754A744B1B6F1B
:1037800023F001031367724A714B1B6F23F004038C
:1037900013677B689B68002B15D0FEF773FF3861B9
:1037A0000AE0FEF76FFF02463B69D31A41F2883206
:1037B000934201D90323C5E0654B1B6F03F002035D
:1037C000002BEED014E0FEF75DFF38610AE0FEF753
:1037D00059FF02463B69D31A41F28832934201D91C
:1037E0000323AFE05A4B1B6F03F00203002BEED113
:1037F000FB7D012B05D1564A554B1B6C23F08053A2
:1038000013647B689B69002B00F09B80504B9B6886
:1038100003F00C03082B5CD07B689B69022B41D121
:103820004C4B00221A60FEF72DFF386108E0FEF7CE
:1038300029FF02463B69D31A022B01D9032381E0F9
:10384000434B1B6803F00073002BF0D140497B68A9
:10385000DA697B681B6A1A437B685B6A9B011A43BF
:103860007B689B6A5B08013B1B041A437B68DB6A2D
:103870001B0613434B60374B01221A60FEF702FF11
:10388000386108E0FEF7FEFE02463B69D31A022BC0
:1038900001D9032356E02E4B1B6803F00073002B65
:1038A000F0D04EE02B4B00221A60FEF7EBFE3861A1
:1038B00008E0FEF7E7FE02463B69D31A022B01D966
:1038C00003233FE0224B1B6803F00073002BF0D171
:1038D00037E07B689B69012B01D1012332E01C4B4F
:1038E0005B68FB607B689B69012B28D0FB6803F455
:1038F00080027B68DB699A4221D1FB6803F03F02BA
:103900007B681B6A9A421AD1FA6847F6C073134063
:103910007A68526A9201934211D1FB6803F44032F3
:103920007B689B6A5B08013B1B049A4207D1FB68DA
:1039300003F070627B68DB6A1B069A4201D00123A8
:1039400000E0002318461837BD4680BD00700040D7
:10395000003802406000474280B584B000AF786014
:1039600039607B68002B01D10123CCE0684B1B68D8
:1039700003F007023B689A420CD2654B3A68D2B218
:103980001A70634B1B6803F007023B689A4201D030
:103990000123B8E07B681B6803F00203002B20D0F2
:1039A0007B681B6803F00403002B05D0594A594B70
:1039B0009B6843F4E05393607B681B6803F0080343
:1039C000002B05D0534A534B9B6843F460439360EC
:1039D0005049504B9B6823F0F0027B689B6813436F
:1039E0008B607B681B6803F00103002B44D07B686D
:1039F0005B68012B07D1474B1B6803F40033002B96
:103A000019D101237FE07B685B68022B03D07B68C0
:103A10005B68032B07D13F4B1B6803F00073002B3F
:103A200009D101236FE03B4B1B6803F00203002B1D
:103A300001D1012367E03749364B9B6823F003022D
:103A40007B685B6813438B60FEF71CFEF8600AE03E
:103A5000FEF718FE0246FB68D31A41F28832934201
:103A600001D903234FE02B4B9B6803F00C027B68CA
:103A70005B689B009A42EBD1254B1B6803F0070261
:103A80003B689A420CD9224B3A68D2B21A70204B4A
:103A90001B6803F007023B689A4201D0012332E021
:103AA0007B681B6803F00403002B08D01949194BED
:103AB0009B6823F4E0527B68DB6813438B607B6870
:103AC0001B6803F00803002B09D01249114B9B68B7
:103AD00023F460427B681B69DB0013438B6000F0BA
:103AE00021F801460B4B9B681B0903F00F030A4AA0
:103AF000D35C21FA03F3094A1360094B1B6818468B
:103B0000FEF77CFD002318461037BD4680BD00BF80
:103B1000003C02400038024050730008440000207E
:103B2000480000202DE9F04F8FB000AF0023FB626A
:103B300000237B630023BB6200233B63624B9B68D3
:103B400003F00C03042B07D0082B08D0002B40F007
:103B5000B2805E4B3B63B1E05D4B3B63AEE05A4BE2
:103B60005B6803F03F03FB62574B5B6803F4800321
:103B7000002B4ED0544B5B689B094FF0000440F281
:103B8000FF114FF0000201EA030102EA04020B46B2
:103B9000144660017862786A40EAD36078625B011B
:103BA0003B62D7E908345B1A64EB02044FEA8419DC
:103BB00049EA93694FEA8318B8EB030869EB0409F3
:103BC0004FEAC903FB61FB6943EA5873FB614FEAA3
:103BD000C803BB61D7E9068918EB010849EB020964
:103BE0004FEA49237B617B6943EAD8537B614FEA03
:103BF00048233B61D7E9048940464946FB6A4FF0B8
:103C000000041A462346FCF7D3FF03460C467B63A9
:103C100043E02D4B5B689B094FF0000440F2FF111D
:103C20004FF0000201EA030102EA04020B461446C7
:103C30006001F860F86840EAD360F8605B01BB603F
:103C4000D7E902345B1A64EB0204A60146EA9366E4
:103C50009D01ED1A66EB0406F3007B607B6843EA86
:103C600055737B60EB003B6097E860006D1846EB96
:103C700002064FEA862B4BEA955B4FEA852A5546AA
:103C80005E4628463146FB6A4FF000041A4623463A
:103C9000FCF78EFF03460C467B630B4B5B681B0CEB
:103CA00003F0030301335B00BB627A6BBB6AB2FBB8
:103CB000F3F33B6302E0054B3B6300BF3B6B1846ED
:103CC0003C37BD46BDE8F08F003802400024F400C8
:103CD00000127A0080B400AF034B1B681846BD4643
:103CE0005DF8047B704700BF4400002080B500AF42
:103CF000FFF7F0FF0146054B9B689B0A03F00703A3
:103D0000034AD35C21FA03F3184680BD0038024011
:103D10006073000880B500AFFFF7DCFF0146054B7C
:103D20009B685B0B03F00703034AD35C21FA03F3A0
:103D3000184680BD003802406073000880B582B02C
:103D400000AF78607B68002B01D101237AE07B68AB
:103D50005B6A002B08D17B685B68B3F5827F09D072
:103D60007B680022DA6105E07B6800221A617B68CB
:103D700000225A617B6800229A627B6893F8513076
:103D8000DBB2002B06D17B68002283F850207868D4
:103D9000FEF780FA7B68022283F851207B681B685B
:103DA0007A681268126822F040021A607B681B6809
:103DB0007A68526802F482717A68926802F4044266
:103DC00011437A68D26802F4006211437A6812697A
:103DD00002F0020211437A68526902F001021143B3
:103DE0007A68926902F4007211437A68D26902F02B
:103DF000380211437A68126A02F0800211437A682D
:103E0000926A02F400520A431A607B681B687A685F
:103E10009269120C02F004017A68526A02F01002F0
:103E20000A435A607B681B687A681268D26922F478
:103E30000062DA617B6800225A657B68012283F8A0
:103E40005120002318460837BD4680BD80B58CB090
:103E500000AFF860B9607A607B800123FB620023C9
:103E600087F82B30FB6893F85030012B01D10223E7
:103E700088E1FB68012283F85020FEF703FC78629A
:103E8000FB6893F8513087F82330FB685B68FB616F
:103E90007B887B8397F82330012B0FD0FB69B3F528
:103EA000827F07D1FB689B68002B03D197F82330F2
:103EB000042B03D0022387F82B3059E1BB68002B79
:103EC00005D07B68002B02D07B88002B03D1012317
:103ED00087F82B304CE1FB6893F85130DBB2042BB0
:103EE00003D0FB68052283F85120FB6800225A6545
:103EF000FB687A689A63FB687A88DA87FB687A8855
:103F00009A87FB68BA681A63FB687A88DA86FB6866
:103F10007A889A86FB6800221A64FB6800225A6439
:103F2000FB681B681B6803F04003402B07D0FB684D
:103F30001B68FA681268126842F040021A60FB6857
:103F4000DB68B3F5006F78D1FB685B68002B02D0AB
:103F50007B8B012B66D1FB681B68FA68126B128899
:103F6000DA60FB681B6B9A1CFB681A63FB68DB8ECC
:103F70009BB2013B9AB2FB68DA8653E0FB681B6890
:103F80009B6803F00203022B1BD1FB68DB8E9BB204
:103F9000002B16D0FB6A012B13D1FB681B68FA6853
:103FA000126B1288DA60FB681B6B9A1CFB681A6341
:103FB000FB68DB8E9BB2013B9AB2FB68DA8600237A
:103FC000FB62FB681B689B6803F00103012B19D19E
:103FD000FB68DB8F9BB2002B14D0FB689B6BFA68ED
:103FE0001268D26892B21A80FB689B6B9A1CFB68BD
:103FF0009A63FB68DB8F9BB2013B9AB2FB68DA875E
:104000000123FB62FEF73EFB02467B6AD21ABB6BC2
:104010009A4207D3BB6BB3F1FF3F03D0032387F86A
:104020002B30A5E0FB68DB8E9BB2002BA6D1FB6892
:10403000DB8F9BB2002BA1D17CE0FB685B68002B7F
:1040400002D07B8B012B6BD1FB681B680C33FA68A9
:10405000126B12781A70FB681B6B5A1CFB681A6390
:10406000FB68DB8E9BB2013B9AB2FB68DA8657E0B5
:10407000FB681B689B6803F00203022B1CD1FB68E2
:10408000DB8E9BB2002B17D0FB6A012B14D1FB688F
:104090001B680C33FA68126B12781A70FB681B6B82
:1040A0005A1CFB681A63FB68DB8E9BB2013B9AB219
:1040B000FB68DA860023FB62FB681B689B6803F0E1
:1040C0000103012B19D1FB68DB8F9BB2002B14D0AD
:1040D000FB689B6BFA681268D268D2B21A70FB68F0
:1040E0009B6B5A1CFB689A63FB68DB8F9BB2013B9E
:1040F0009AB2FB68DA870123FB62FEF7C3FA024635
:104100007B6AD21ABB6B9A4203D3BB6BB3F1FF3FFE
:1041100002D1BB6B002B03D1032387F82B3027E0A0
:10412000FB68DB8E9BB2002BA2D1FB68DB8F9BB2BE
:10413000002B9DD17A6AB96BF86800F0AFF803469E
:10414000002B06D0012387F82B30FB6820225A650C
:104150000EE0FB689B68002B0AD100237B61FB68A3
:104160001B68DB687B61FB681B689B687B617B6904
:10417000FB68012283F85120FB68002283F850205D
:1041800097F82B3018463037BD4680BD80B588B0D3
:1041900000AFF860B9603B601346FB71FEF772FA3E
:1041A0000246BB6A9A1A3B681344FB61FEF76AFA3F
:1041B000B861394B1B685B011B0DFA6902FB03F305
:1041C0007B6154E03B68B3F1FF3F50D0FEF75AFAF1
:1041D0000246BB69D21AFB699A4202D2FB69002BE4
:1041E0003DD1FB681B68FA681268526822F0E00251
:1041F0005A60FB685B68B3F5827F11D1FB689B68EE
:10420000B3F5004F04D0FB689B68B3F5806F07D10E
:10421000FB681B68FA681268126822F040021A6094
:10422000FB689B6AB3F5005F0FD1FB681B68FA68F7
:104230001268126822F400521A60FB681B68FA6860
:104240001268126842F400521A60FB68012283F877
:104250005120FB68002283F85020032317E07B697C
:10426000002B01D10023FB617B69013B7B61FB6873
:104270001B689A68BB681A40BB689A420CBF01234E
:104280000023DBB21A46FB799A429BD100231846E1
:104290002037BD4680BD00BF4400002080B588B0F7
:1042A00002AFF860B9607A601B4B1B681B4AA2FB27
:1042B00003235B0D4FF47A7202FB03F37B61FB680F
:1042C0005B68B3F5827F12D17B680093BB680022E4
:1042D0008021F868FFF75AFF0346002B16D0FB68D1
:1042E0005B6D43F02002FB685A6503230FE07B6996
:1042F000002B0AD07B69013B7B61FB681B689B68D4
:1043000003F08003802BF2D000E000BF00231846AA
:104310001837BD4680BD00BF44000020819F5E1657
:1043200080B582B000AF78607B68002B01D101239B
:104330003FE07B6893F83D30DBB2002B06D17B6811
:10434000002283F83C207868FDF7ECFF7B6824228C
:1043500083F83D207B681B687A681268D26822F473
:104360000052DA60786800F087FE7B681B687A6824
:104370001268126922F490421A617B681B687A689D
:104380001268526922F02A025A617B681B687A68B7
:104390001268D26842F40052DA607B6800221A6424
:1043A0007B68202283F83D207B68202283F83E2012
:1043B000002318460837BD4680BD80B58AB002AFDD
:1043C000F860B9603B601346FB8000237B61FB68AB
:1043D00093F83D30DBB2202B7BD1BB68002B02D0A1
:1043E000FB88002B01D1012374E0FB6893F83C307B
:1043F000012B01D102236DE0FB68012283F83C20F0
:10440000FB6800221A64FB68212283F83D20FEF736
:1044100039F97861FB68FA889A84FB68FA88DA844B
:10442000FB689B68B3F5805F08D1FB681B69002BB4
:1044300004D10023FB61BB68BB6103E0BB68FB6187
:104440000023BB61FB68002283F83C2029E03B6825
:1044500000937B6900228021F86800F008FC034685
:10446000002B01D0032335E0FB69002B0AD1FB6848
:104470001B68BA691288C2F308025A60BB6902332A
:10448000BB6107E0FB681B68FA6912785A60FB6938
:104490000133FB61FB68DB8C9BB2013B9AB2FB688A
:1044A000DA84FB68DB8C9BB2002BD0D13B68009395
:1044B0007B6900224021F86800F0D9FB0346002BFD
:1044C00001D0032306E0FB68202283F83D2000236F
:1044D00000E0022318462037BD4680BD80B586B077
:1044E00000AFF860B9601346FB80FB6893F83D307D
:1044F000DBB2202B53D1BB68002B02D0FB88002BF2
:1045000001D101234CE0FB6893F83C30012B01D131
:10451000022345E0FB68012283F83C20BA68FB686F
:104520001A62FB68FA889A84FB68FA88DA84FB6866
:1045300000221A64FB68212283F83D20FB685B6B34
:10454000194ADA63FB685B6B184A1A64FB685B6B99
:10455000174ADA64FB685B6B00221A6507F10803EF
:104560007B61FB68586B7B691968FB681B680433C7
:104570001A46FB88FEF772FAFB681B686FF0400270
:104580001A60FB68002283F83C20FB681B68FA680D
:104590001268526942F080025A61002300E002234F
:1045A00018461837BD4680BDA14A0008F34A0008E6
:1045B000DB4B000880B584B000AFF860B9601346EB
:1045C000FB80FB6893F83E30DBB2202B1DD1BB682B
:1045D000002B02D0FB88002B01D1012316E0FB68E1
:1045E00093F83C30012B01D102230FE0FB6801223C
:1045F00083F83C20FB6800221A63FB881A46B968DE
:10460000F86800F07FFB034600E0022318461037ED
:10461000BD4680BD80B584B000AF78600023FB60EC
:104620007B681B685B6903F08003802B0CBF012350
:104630000023DBB2FB607B6893F83D30DBB2212BBB
:1046400016D1FB68002B13D07B681B687A68126850
:10465000526922F080025A617B685B6B002B04D0A8
:104660007B685B6B1846FEF751FA786800F0AEFB8A
:104670007B681B685B6903F04003402B0CBF012380
:104680000023DBB2FB607B6893F83E30DBB2222B69
:1046900016D1FB68002B13D07B681B687A68126800
:1046A000526922F040025A617B689B6B002B04D058
:1046B0007B689B6B1846FEF729FA786800F09CFB34
:1046C000002318461037BD4680BD000080B58AB073
:1046D00000AF78607B681B681B687B627B681B6827
:1046E000DB683B627B681B685B69FB610023BB6125
:1046F00000237B617B6A03F00F03BB61BB69002B66
:104700000DD17B6A03F02003002B08D03B6A03F035
:104710002003002B03D0786800F016FC7DE1BB6914
:10472000002B00F0B180FB6903F00103002B05D1E1
:104730003B6A03F49073002B00F0A6807B6A03F0C1
:104740000103002B0AD03B6A03F48073002B05D0D1
:104750007B681B6C43F001027B681A647B6A03F080
:104760000403002B0AD0FB6903F00103002B05D0E2
:104770007B681B6C43F002027B681A647B6A03F05F
:104780000203002B0AD0FB6903F00103002B05D0C4
:104790007B681B6C43F004027B681A647B6A03F03D
:1047A0000803002B0FD03B6A03F02003002B04D139
:1047B000FB6903F00103002B05D07B681B6C43F001
:1047C00008027B681A647B681B6C002B00F0208158
:1047D0007B6A03F02003002B07D03B6A03F0200321
:1047E000002B02D0786800F0AFFB7B681B685B6928
:1047F00003F04003402B0CBF01230023DBB27B619D
:104800007B681B6C03F00803002B02D17B69002B33
:1048100031D0786800F0F0FA7B681B685B6903F0C0
:104820004003402B23D17B681B687A681268526969
:1048300022F040025A617B689B6B002B13D07B688F
:104840009B6B774A1A657B689B6B1846FEF7CEF91F
:104850000346002B16D07B689B6B1B6D7A68926BAE
:10486000104698470EE0786800F004F90AE078688E
:1048700000F000F906E0786800F0FCF87B680022A0
:104880001A64C5E000BFC3E07B681B6B012B40F0DE
:10489000A2807B6A03F01003002B00F09C803B6A2F
:1048A00003F01003002B00F096800023FB607B6870
:1048B0001B681B68FB607B681B685B68FB60FB68B0
:1048C0007B681B685B6903F04003402B4FD17B681A
:1048D0009B6B1B685B687B827B8A002B00F09A8055
:1048E0007B689B8D7A8A9A4280F094807B687A8A72
:1048F000DA857B689B6BDB69B3F5807F2BD07B68A7
:104900001B687A681268D26822F48072DA607B6869
:104910001B687A681268526922F001025A617B684A
:104920001B687A681268526922F040025A617B68FB
:10493000202283F83E207B6800221A637B681B6874
:104940007A681268D26822F01002DA607B689B6B8A
:104950001846FEF7DBF87B689A8D7B68DB8D9BB28F
:10496000D31A9BB21946786800F08EF852E07B6843
:104970009A8D7B68DB8D9BB2D31A3B827B68DB8D83
:104980009BB2002B48D03B8A002B45D07B681B682C
:104990007A681268D26822F49072DA607B681B68C9
:1049A0007A681268526922F001025A617B682022FB
:1049B00083F83E207B6800221A637B681B687A6854
:1049C0001268D26822F01002DA603B8A19467868D1
:1049D00000F05AF820E07B6A03F08003002B08D037
:1049E0003B6A03F08003002B03D0786800F045FA9F
:1049F00013E07B6A03F04003002B0ED03B6A03F008
:104A00004003002B09D0786800F086FA00BF04E06C
:104A100000BF02E000BF00E000BF2837BD4680BDF8
:104A2000534E000880B483B000AF786000BF0C37ED
:104A3000BD465DF8047B704780B483B000AF7860FA
:104A400000BF0C37BD465DF8047B704780B483B06F
:104A500000AF786000BF0C37BD465DF8047B70473F
:104A600080B483B000AF786000BF0C37BD465DF8FE
:104A7000047B704780B483B000AF786000BF0C3710
:104A8000BD465DF8047B704780B483B000AF7860AA
:104A90000B467B8000BF0C37BD465DF8047B70473A
:104AA00080B584B000AF78607B689B6BFB607B68EF
:104AB0001B681B6803F48073002B13D1FB68002272
:104AC000DA84FB681B68FA681268526922F0800277
:104AD0005A61FB681B68FA681268D26842F04002AB
:104AE000DA6002E0F868FFF79DFF00BF1037BD46AF
:104AF00080BD80B584B000AF78607B689B6BFB6045
:104B0000F868FFF799FF00BF1037BD4680BD80B53C
:104B100084B000AF78607B689B6BFB607B681B6830
:104B20001B6803F48073002B2AD1FB680022DA850E
:104B3000FB681B68FA681268D26822F48072DA6037
:104B4000FB681B68FA681268526922F001025A6118
:104B5000FB681B68FA681268526922F040025A61C9
:104B6000FB68202283F83E20FB681B6B012B07D1DA
:104B7000FB681B68FA681268D26822F01002DA60DB
:104B8000FB681B6B012B06D1FB689B8D1946F868EF
:104B9000FFF77AFF02E0F868FFF758FF00BF103711
:104BA000BD4680BD80B584B000AF78607B689B6BEC
:104BB000FB60FB681B6B012B08D1FB689B8D5B08BE
:104BC0009BB21946F868FFF75FFF02E0F868FFF74D
:104BD00047FF00BF1037BD4680BD80B584B000AF31
:104BE00078600023FB607B689B6BBB60BB681B68C5
:104BF0005B6903F08003802B0CBF01230023DBB231
:104C0000FB60BB6893F83D30DBB2212B08D1FB6819
:104C1000002B05D0BB680022DA84B86800F0D6F813
:104C2000BB681B685B6903F04003402B0CBF01238A
:104C30000023DBB2FB60BB6893F83E30DBB2222B73
:104C400008D1FB68002B05D0BB680022DA85B86864
:104C500000F0D2F8BB681B6C43F01002BB681A640A
:104C6000B868FFF707FF00BF1037BD4680BD80B5AD
:104C700084B000AFF860B9603B601346FB712CE074
:104C8000BB69B3F1FF3F28D0BB69002B07D0FDF70C
:104C9000F9FC02463B68D21ABB699A421DD9FB68EF
:104CA0001B68FA681268D26822F4D072DA60FB6876
:104CB0001B68FA681268526922F001025A61FB68A7
:104CC000202283F83D20FB68202283F83E20FB68E9
:104CD000002283F83C2003230FE0FB681B681A685E
:104CE000BB681A40BB689A420CBF01230023DBB2A9
:104CF0001A46FB799A42C3D0002318461037BD46A6
:104D000080BD000080B586B000AFF860B960134682
:104D1000FB80BA68FB689A62FB68FA889A85FB6830
:104D200000221A64FB68222283F83E20FB689B6BFA
:104D3000234ADA63FB689B6B224A1A64FB689B6B0D
:104D4000214ADA64FB689B6B00221A6507F10803AD
:104D50007B61FB68986BFB681B68043319467B69B1
:104D60001A68FB88FDF77AFE00233B61FB681B682D
:104D70001B683B61FB681B685B683B613B69FB68C8
:104D8000002283F83C20FB681B68FA681268D2682E
:104D900042F48072DA60FB681B68FA681268526934
:104DA00042F001025A61FB681B68FA681268526996
:104DB00042F040025A61002318461837BD4680BDB4
:104DC0000F4B0008A54B0008DB4B000880B483B0F4
:104DD00000AF78607B681B687A681268D26822F03E
:104DE000C002DA607B68202283F83D2000BF0C37C8
:104DF000BD465DF8047B704780B483B000AF786037
:104E00007B681B687A681268D26822F49072DA6054
:104E10007B681B687A681268526922F001025A6145
:104E20007B681B6B012B07D17B681B687A68126853
:104E3000D26822F01002DA607B68202283F83E20DC
:104E40007B6800221A6300BF0C37BD465DF8047B07
:104E5000704780B584B000AF78607B689B6BFB6067
:104E6000FB680022DA85FB680022DA84F868FFF725
:104E700001FE00BF1037BD4680BD80B485B000AFD5
:104E800078607B6893F83D30DBB2212B3DD17B68A5
:104E90009B68B3F5805F13D17B681B69002B0FD132
:104EA0007B681B6AFB607B681B68FA681288C2F328
:104EB00008025A607B681B6A9A1C7B681A6208E0C9
:104EC0007B681A687B681B6A581C796808621B78C3
:104ED00053607B68DB8C9BB2013B9BB27A681946BE
:104EE000D184002B0FD17B681B687A681268D26866
:104EF00022F08002DA607B681B687A681268D268E8
:104F000042F04002DA60002300E002231846143722
:104F1000BD465DF8047B704780B582B000AF786015
:104F20007B681B687A681268D26822F04002DA60F7
:104F30007B68202283F83D207868FFF773FD00230B
:104F400018460837BD4680BD80B584B000AF786094
:104F50007B6893F83E30DBB2222B40F087807B6881
:104F60009B68B3F5805F17D17B681B69002B13D159
:104F70000023FB607B689B6ABB607B681B685B6887
:104F80009BB2C3F308039AB2BB681A807B689B6A22
:104F90009A1C7B689A6226E07B689B6AFB60002310
:104FA000BB607B689B68B3F5805F07D07B689B68BC
:104FB000002B0AD17B681B69002B06D17B681B681C
:104FC0005B68DAB2FB681A7008E07B681B685B6894
:104FD000DBB203F07F03DAB2FB681A707B689B6A6E
:104FE0005A1C7B689A627B68DB8D9BB2013B9BB24B
:104FF0007A681946D185002B36D17B681B687A68A0
:105000001268D26822F02002DA607B681B687A6836
:105010001268D26822F48072DA607B681B687A6852
:105020001268526922F001025A617B68202283F8DB
:105030003E207B681B6B012B0ED17B681B687A6856
:105040001268D26822F01002DA607B689B8D1946E4
:105050007868FFF719FD02E07868FFF7F7FC7B68D6
:1050600000221A63002302E0002300E00223184616
:105070001037BD4680BD00002DE9F04F91B000AF64
:1050800078637B6B19687B6B1B681B6923F4405248
:105090007B6BDB6813430B617B6B9A687B6B1B69D3
:1050A0001A437B6B5B691A437B6BDB691343BB63FE
:1050B0007B6B19687B6B1B68DB6823F4164222F05C
:1050C0000C02BB6B1343CB607B6B19687B6B1B685B
:1050D0005B6923F440727B6B9B6913434B617B6B71
:1050E0001A68BA4B9A4204D07B6B1A68B84B9A4242
:1050F00003D1FEF70FFEF86302E0FEF7F7FDF86359
:105100007B6BDB69B3F5004F40F0A7807B6B1A68BF
:10511000BA62FB6B19464FF000020B461446DB18CF
:1051200044EB04045B1844EB0204E0007861786906
:1051300040EA53707861DB003B61D7E904345D18C5
:1051400044EB0206284631467B6B5B684FF0000457
:10515000DB1844EB04041A462346FBF729FD0346FB
:105160000C461A469B4BA3FB02235B091E01FB6BFB
:1051700019464FF000020B461446DB1844EB0404BA
:105180005B1844EB02044FEAC40B4BEA537B4FEA33
:10519000C30A53465C4613EB010A44EB020B50462C
:1051A00059467B6B5B684FF00004DB1844EB04044A
:1051B0001A462346FBF7FCFC03460C461A46854B71
:1051C000A3FB02135B09642101FB03F3D31ADB0089
:1051D0003233804AA2FB03235B095B0003F4F873BC
:1051E0001E44FB6B19464FF000020B461446DB18B9
:1051F00044EB04045B1844EB02044FEAC40949EA97
:1052000053794FEAC30843464C4613EB010844EB7D
:105210000209404649467B6B5B684FF00004DB188F
:1052200044EB04041A462346FBF7C2FC03460C4633
:105230001A46684BA3FB02135B09642101FB03F3CD
:10524000D31ADB003233634AA2FB03235B0903F06A
:1052500007033344BA6A9360B3E07B6B1B683B611E
:10526000FB6B19464FF000020B461446DB1844EB6B
:1052700004045B1844EB0204E60046EA5376DD00C2
:105280002B4634465D1844EB0206284631467B6BBC
:105290005B684FF00004A500FD62FD6A45EA937566
:1052A000FD629C00BC62D7E90A23FBF781FC034640
:1052B0000C461A46474BA3FB02135B091D01FB6B0F
:1052C00019464FF000020B461446DB1844EB040469
:1052D0005B1844EB0204E000F860F86840EA5370A1
:1052E000F860D800B860D7E9023413EB010844EB4A
:1052F0000209404649467B6B5B684FF00004A600FC
:105300007E627E6A46EA93767E629C003C62D7E9C2
:105310000823FBF74DFC03460C461A462D4BA3FB16
:1053200002135B09642101FB03F3D31A1B0132331F
:10533000284AA2FB03135B0903F0F0031D44FB6B37
:1053400019464FF000020B461446DB1844EB0404E8
:105350005B1844EB0204E0007860786840EA537020
:105360007860D800386097E8180013EB010844EB28
:105370000209404649467B6B5B684FF00004A6007B
:10538000FE61FE6946EA9376FE619C00BC61D7E946
:105390000623FBF70DFC03460C461A460D4BA3FBF8
:1053A00002135B09642101FB03F3D31A1B0132339F
:1053B000084AA2FB03135B0903F00F032B443A696D
:1053C000936000BF4437BD46BDE8F08F0010014038
:1053D000001401401F85EB51DFF834D00D480E4911
:1053E0000E4A002302E0D458C4500433C4188C423F
:1053F000F9D30B4A0B4C002301E013600432A242A4
:10540000FBD3FDF7C7F800F01BF8FCF713F9704762
:105410000000022000000020240200205075000837
:1054200024020020AC040020FEE70A22002100F044
:10543000D7B80000014B1868704700BF500000202B
:1054400070B50D4E0D4CA41BA4100025A54209D12A
:105450000B4E0C4C01F05CFFA41BA4100025A542D0
:1054600005D170BD56F8253098470135EEE756F85E
:10547000253098470135F2E748750008487500085F
:10548000487500084C75000802440346934200D159
:10549000704703F8011BF9E70EB400B59CB04FF458
:1054A00002711DABADF81410029006906FF0004130
:1054B0000A48049107914FF6FF7153F8042BADF899
:1054C00016100068019302A900F010F9029B002257
:1054D0001A701CB05DF804EB03B070475000002058
:1054E0002DE9F84F8046894692461F468B465D4619
:1054F0000A9815F8014B00F089F82044467816F018
:1055000008060BD12D2C0BD12C7801260BF10205AE
:1055100067B1102F14D1302C0AD011E0AB46E6E76A
:105520002B2C04BF2C780BF10205F1E7302C27D18E
:105530002B7803F0DF03582B4BD16C781027023502
:10554000002E0CBF6FF000414FF000410022B1FB74
:10555000F7FE104607FB1E1CA4F13003092B11D8DF
:105560001C46A7421DDD531C07D0864516D301D12A
:10557000A44513DB00FB0740012215F8014BEBE7C4
:105580000A27DDE7A4F14103192B01D8373CE8E7EE
:10559000A4F16103192B04D8573CE2E74FF0FF3226
:1055A000EBE7531C08D12223C8F800300846BAF1B3
:1055B000000F07D1BDE8F88F06B14042BAF1000FE5
:1055C0000CD022B1013DCAF80050BDE8F88F4D461D
:1055D000F9E73024002FB3D10827B1E7BDE8F88FF1
:1055E000084B37B51C68084D236A002B08BF2B46B3
:1055F000009313460A4601462046FFF771FF03B0A9
:1056000030BD00BF50000020B4000020D0F8EC00F6
:10561000704782B001B901A942B14BB113780B6058
:105620001278101C18BF012002B070471046FBE72B
:105630006FF00100F8E72DE9F0478E689E42824640
:105640000C469146984635D88A8912F4906F31D02D
:10565000256809696F1A6569022305EB450595FB05
:10566000F3F508F101033B449D4238BF1D46530545
:1056700031D5294600F044FB064650B90C23CAF840
:105680000030A38943F04003A3814FF0FF30BDE811
:10569000F0873A46216900F0C0FAA38923F49063A9
:1056A00043F08003A381266165613E44ED1B2660C3
:1056B000A5604646464528BF4646324649462068CC
:1056C00000F0B6FAA3689B1BA36023681E44266003
:1056D0000020BDE8F0872A4600F070FB064600284F
:1056E000E1D12169504600F0BDFAC7E72DE9F04F3E
:1056F0009DB0804603938B891C060D4616460FD538
:105700000B696BB9402100F0FBFA2860286128B9C9
:105710000C23C8F800304FF0FF30C5E040236B6128
:105720000023099320238DF8293030238DF82A3067
:105730004FF0010B37463C4614F8013B002B3CD19F
:10574000B7EB060A0BD05346324629464046FFF7D0
:1057500072FF013000F0A380099B534409933B780A
:10576000002B00F09C8000234FF0FF32049307933E
:10577000059206938DF853301A93052221785048EC
:10578000FAF736FD671C049BD8B9D90644BF20221E
:105790008DF853201A0744BF2B228DF8532022780E
:1057A0002A2A16D0079A00210A20274601343B787E
:1057B000303B092B51D9C9B111E0252BC0D0274668
:1057C000B9E73F4A801A0BFA00F0184304903C46B0
:1057D000D3E7039A111D12680391002A01DB079297
:1057E00004E0524243F00203079204933B782E2BCD
:1057F0000ED17B782A2B07F1010132D1039B1A1DB0
:105800001B680392002BB8BF4FF0FF33023705939C
:105810002C4C397803222046FAF7EAFC38B14023B1
:10582000001B03FA00F0049B03430493013739780B
:1058300025488DF8281006227E1CFAF7D9FC00288E
:1058400035D0224BFBB9039B073323F00703083302
:105850000393099B4B4409936CE700FB023201213F
:10586000A3E70023059318460A240F4601313A782E
:10587000303A092A03D9002BCAD00590C8E704FBA7
:1058800000200123F1E703AB00932A46104B04A943
:105890004046AFF30080B0F1FF3F8146D9D1AB89DC
:1058A0005B063FF538AF09981DB0BDE8F08F03AB3C
:1058B00000932A46064B04A9404600F081F8EAE727
:1058C0007A730008807300088473000800000000E9
:1058D000375600082DE9F04791461F468A680B6944
:1058E000DDF820809342B8BF1346C9F8003091F824
:1058F000432006460C4612B10133C9F80030236834
:10590000990642BFD9F800300233C9F80030256843
:1059100015F0060507D104F1190AE368D9F800204B
:105920009B1A9D4229DB94F843302268003318BF4C
:10593000012392062ED404F1430239463046C04773
:10594000013021D02368E568D9F8002003F0060370
:10595000042B08BFAD1AA36822690CBF25EAE575C0
:1059600000259342C4BF9B1AED184FF000091A346A
:105970004D451BD10020BDE8F08701235246394632
:105980003046C047013003D14FF0FF30BDE8F0870B
:105990000135C2E7E1185A1C302081F84300224447
:1059A00094F8451082F843100233C4E701232246DD
:1059B00039463046C0470130E6D009F10109D7E742
:1059C0002DE9F04317460A7E85B06E2A98460646B2
:1059D0000C460C9B01F1430E00F0BC801AD8632AE0
:1059E0002ED00AD8002A00F0C880582A00F08A80F9
:1059F00004F1420584F842202AE0642A01D0692A91
:105A0000F6D121681A6811F0800F23D0111D19609A
:105A1000136827E0732A00F0B48008D86F2A2AD0D0
:105A2000702AE5D10A6842F020020A6003E0752A74
:105A300021D0782ADCD1782284F845206E4964E0B0
:105A40001A6801F14205111D1960136884F842308B
:105A50000123A3E011F0400F02F104011960D7D037
:105A6000B2F90030002B03DA2D225B4284F8432088
:105A700062490A2217E02068196810F0800F03D0ED
:105A8000081D18600B6806E010F0400F01F10400DB
:105A90001860F7D00B8859496F2A14BF0A220822D0
:105AA000002084F843006568A560002DC0F29C804A
:105AB000206820F004002060002B3FD1002D40F032
:105AC00095807546082A0BD12368DA0708D5236923
:105AD00062689A42DEBF302305F8013C05F1FF35CC
